S01A0000495650383030305F43414D4552415F4535342E737265633E
S1130000105F0320E1020000DD020000DD020000B9
S1130010DD020000DD020000DD020000000000003F
S1130020000000000000000000000000DD020000ED
S1130030DD02000000000000DD020000DD0200001F
S1130040DD020000DD020000DD020000DD02000030
S1130050DD020000DD020000DD020000DD02000020
S1130060DD020000DD020000DD020000DD02000010
S1130070DD020000DD020000DD020000DD02000000
S1130080DD020000DD020000DD020000DD020000F0
S1130090DD020000DD020000DD020000DD020000E0
S11300A0B9140000C5140000DD020000DD020000E8
S11300B0DD020000DD020000DD0200008912000004
S11300C095120000A1120000AD120000B912000048
S11300D0DD020000DD020000DD020000DD020000A0
S11300E0DD020000DD02000000000000000000004E
S11300F00000000059170000DD020000DD020000CE
S1130100DD020000DD0200007121000085210000F5
S113011099210000AD210000DD020000DD02000095
S1130120DD020000DD020000DD020000DD0200004F
S1130130DD020000DD020000DD020000DD0200003F
S1130140DD020000DD020000DD020000DD0200002F
S1130150DD020000DD020000DD020000DD0200001F
S1130160DD020000DD020000DD020000DD0200000F
S1130170DD020000DD020000DD020000DD020000FF
S1130180DD020000DD020000DD020000DD020000EF
S1130190DD020000C1240000DD020000DD020000D9
S11301A0DD020000DD020000DD020000DD020000CF
S11301B0DD020000DD020000DD020000DD020000BF
S11301C0DD020000DD020000DD020000DD020000AF
S11301D0DD020000DD020000DD020000DD0200009F
S11301E0DD020000DD020000DD020000DD0200008F
S11301F0DD020000DD020000DD020000DD0200007F
S1130200DD020000DD020000DD020000DD0200006E
S1130210DD020000DD020000DD020000DD0200005E
S1130220DD020000DD020000DD020000DD0200004E
S1130230DD020000DD020000DD020000DD0200003E
S1130240DD0200002D170000DD020000DD020000C9
S1130250DD020000DD020000DD020000DD0200001E
S1130260DD02000010B5054C237833B9044B13B1FB
S11302700448AFF300800123237010BD80000020E8
S113028000000000802B00000C4B43B10C480D49CA
S113029010B5AFF300800C48036823B910BD0A48B9
S11302A0036833B97047094B002BF7D0BDE8104001
S11302B01847064B002BF5D0184700BF000000007C
S11302C0802B000084000020802B00000000000030
S11302D008B5014B984708BD69070000FEE7000018
S11302E008B5154B154A9A4209D0134B134A03E03B
S11302F0116819600433043211498B42F8D3114B4D
S113030002E000221A6004330F4A9342F9D30F4BE0
S11303100F4A22F07F029A60D3F8882042F47002D8
S1130320C3F88820BFF34F8FBFF36F8F094B9847F3
S1130330094B9847FEE700BF00000020802B000017
S11303407C00002080000020105F022000ED00E00F
S1130350000000007D2700007D26000008B5402233
S1130360214BC3F89020214A536943F480635361BD
S11303701F4B4FF480525A601E4999621E4898627E
S11303805A6093F84C1041F0040183F84C109A61C0
S113039093F84C2002F0FE0242F0010283F84C2054
S11303A093F8362002F0F00283F836204FF400521E
S11303B05A60124A9A62986293F84D2002F0FB0246
S11303C083F84D2093F84D2002F0FE0242F0010222
S11303D083F84D2093F8362002F00F0283F836207C
S11303E0074B984708BD00BF001C004000080040B0
S11303F00080004100100240000002C000200240C2
S11304003509000008B54022054BC3F8B020054A61
S1130410936943F080039361034B984708BD00BF81
S1130420001C004000080040E5080000484B93F819
S11304304E2002F0FE0242F0010283F84E2093F8AF
S1130440372002F0F00242F00A0283F8372093F8D2
S1130450502002F0FE0242F0010283F8502093F88B
S1130460382002F0F00242F00A0283F8382093F8B0
S1130470512002F0FE0242F0010283F8512093F869
S1130480382002F00F0242F0A00283F8382093F8DB
S1130490522002F0FE0242F0010283F8522093F847
S11304A0392002F0F00242F00A0283F8392093F86E
S11304B0532002F0FE0242F0010283F8532093F825
S11304C0392002F00F0242F0A00283F8392093F899
S11304D0542002F0FE0242F0010283F8542093F803
S11304E03A2002F0F00242F00A0283F83A2093F82C
S11304F0552002F0FE0242F0010283F8552093F8E1
S11305003A2002F00F0242F0A00283F83A2093F856
S1130510562002F0FE0242F0010283F8562093F8BE
S11305203B2002F0F00242F00A0283F83B2093F8E9
S1130530572002F0FE0242F0010283F8572093F89C
S11305403B2002F00F0242F0A00283F83B207047E8
S113055000800041024A136A43F400631362704747
S11305600008004008B5044B984704490448054B6B
S11305709847054B984708BD55050000002C0043DB
S1130580C05E0220750800002D040000064B4022C6
S1130590C3F8A0204222C3F88C20044A536943F4D0
S11305A000535361704700BF001C00400008004026
S11305B0104B93F85B2102F0FE0242F0010283F833
S11305C05B2193F83D2102F00F0242F0200283F8F0
S11305D03D2193F85C2102F0FE0242F0010283F80F
S11305E05C2193F83E2102F0F00242F0020283F80B
S11305F03E2170470080004110B582B0064B9847F9
S1130600002300931023054A05490648064CA047D9
S1130610064B984702B010BD8D0500009C000020D9
S113062000340040705E02207D0D0000B105000022
S1130630164B93F8C82102F0FB0283F8C82193F803
S1130640C82102F0FE0242F0010283F8C82193F8A7
S1130650B42102F0F00242F0020283F8B42193F8CC
S1130660C92102F0FB0283F8C92193F8C92102F0E1
S1130670FE0242F0010283F8C92193F8B42102F08A
S11306800F0242F0200283F8B42170470080004139
S1130690064B4322C3F814214222C3F88C20044A97
S11306A0136A43F008031362704700BF001C004044
S11306B00008004008B5044B984704490448054B1A
S11306C09847054B984708BD91060000000C00436D
S11306D0D45E0220990A00003106000008B50248E1
S11306E0024B984708BD00BF10E000E0B1080000CD
S11306F0084A92F8CB3103F0FE0343F0010382F879
S1130700CB3192F8B53103F00F0343F0500382F874
S1130710B531704700800041044A936943F4006393
S113072093614022024BC3F8E42070470008004064
S1130730001C004008B5064B9847064B9847064BEB
S11307409847024605490648064B984708BD00BF2E
S113075019070000F1060000BB24000000600141FD
S1130760545E0220790B000008B52E4B98472E4B9F
S11307704FF40062C3F81421C3F8082102F1804247
S1130780C3F828214FF04041C3F8281193F84B21B6
S113079002F0FE0283F84B214FF48052C3F8142177
S11307A0C3F8082102F18042C3F82821C3F82811B4
S11307B093F84C2102F0FE0283F84C214FF480029E
S11307C0C3F81421C3F808214FF08041C3F828115D
S11307D0164AC3F8282193F8562102F0FE0283F842
S11307E056214FF40002C3F81821C3F80821C3F8B6
S11307F028110F4AC3F8282193F8572102F0FE026A
S113080083F857210B4B98470B4B98470B4B984752
S11308100B4B98470B4B98470B4B98470B4B984700
S113082008BD00BF450F000000800041400000C02B
S1130830800000C05D0300000504000065050000A1
S1130840F9050000B5060000DD06000035070000CC
S1130850EFF31083036072B6BFF35F8F7047BFF38B
S11308605F8F036883F31088704708B5036903B189
S1130870984708BD38B50D46044678B161B10120EA
S113088032220749074B984729462046064B98478A
S1130890064B2360002038BD0020F1E70020EFE77D
S11308A0D42700003D0E00008D1600006B080000E8
S11308B008B5024B1860024B984708BDAC000020F5
S11308C0D521000010B5044B1C68044B9847014621
S11308D02046034B984710BDAC000020350F0000A4
S11308E0E121000008B5014B984708BDD114000070
S11308F038B50225002407E00D4A52F83330B3B16D
S1130900984738BD013AD5B2AC4210D82B195B10C8
S1130910DAB2012A0BD81346054901EBC201496832
S11309208142E9D08142EDD20132D4B2ECE738BD44
S1130930B000002008B500230AE0084A02EBC30116
S11309404FF0FF304860002142F8331001339BB26E
S1130950012BF2D90248034B984708BDB000002090
S1130960F108000089130000F0B583B004460023A9
S1130970012B0ED818462E4A02EBC3025268A2423B
S113098002D00133DBB2F3E7294B43F830100125E1
S113099000E0002559B1002D3DD10023012B13D8CF
S11309A0234A52F8332042B10133DBB2F6E7002D7B
S11309B038D020461F4B984732E01D4A42F8331086
S11309C002EBC30254600125002201E00132D2B2DD
S11309D0012A20D8012B1ED89E46154901EBC300DD
S11309E0406801EBC20149688842EFD2B1F1FF3F90
S11309F0ECD00F4F07EBC20696E803008DE8030026
S1130A0007EBC30797E8030086E803009DE80300AB
S1130A1087E80300DAE745B101212046054B9847F2
S1130A2003B0F0BD6FF00C00FAE76FF00C00F7E7CD
S1130A30B00000206114000010B584B00389ADF843
S1130A400430144602924FF40043ADF8063003918B
S1130A5001A91438034B984710B9204604B010BDBF
S1130A600446FAE7C11E000010B584B00389ADF84E
S1130A7004301446029248F20103ADF806300391A3
S1130A8001A91438034B984710B9204604B010BD8F
S1130A900446FAE7C11E000038B50D4604465E223E
S1130AA00849003018BF0120074B984729462046C3
S1130AB0064B9847034618B9054AA261054A626184
S1130AC0184638BDF42700003D0E0000191E000032
S1130AD0690A0000390A000008B5014B984708BDAF
S1130AE0491E0000C1F3090102F480620A438283B3
S1130AF010467047143008600020704770B50D46EA
S1130B001646044668B151B1012034220649074B08
S1130B1098472368324629462046984770BD0020EE
S1130B20F3E70020F1E700BF102800003D0E0000AD
S1130B3070B50D461646044668B151B101203D22F8
S1130B400649074B9847636832462946204698472A
S1130B5070BD0020F3E70020F1E700BF102800007B
S1130B603D0E000008B5436903B1984708BD08B5B8
S1130B70836903B1984708BD38B50D46044688B16A
S1130B8071B1012033220849084B98472946204671
S1130B90074B9847074B2360074B6360002038BD21
S1130BA00020EFE70020EDE7242800003D0E0000C0
S1130BB0D9220000650B00006F0B000010B504463D
S1130BC04A220949003018BF0120084B98472046A3
S1130BD0074B984720B92046064B9847002010BD84
S1130BE06FF0100010BD00BF242800003D0E00006F
S1130BF0A92400007524000070B50D46164604466D
S1130C007C220649003018BF0120054B9847324624
S1130C1029462046034B9847002070BD2428000035
S1130C203D0E00008924000008B500238362C369D7
S1130C301BB1A0F108021046984708BD08B500236F
S1130C408362436A1BB1A0F108021046984708BDAD
S1130C5038B50446A0F108052C30034B9847236AA5
S1130C600BB12846984738BDD10E000070B50E462A
S1130C7015460446D8B1E1B1EAB9002040F23B126E
S1130C800F49104B9847B4F84420B4F84C309A42BA
S1130C9013D1A664A4F84C500023A4F844300123D3
S1130CA0236304F10800084B9847284670BD0020D0
S1130CB0E4E70020E2E70120E0E76FF01B0070BDED
S1130CC03C2800003D0E0000071E000010B504463D
S1130CD0838FB0F84420934209D0026C591C818759
S1130CE0D15C044B98472046034B984710BD034BF7
S1130CF0984710BD011E0000071E00000F1E0000D3
S1130D002DE9F04182B0884616460546A0B1A9B146
S1130D10B2B900204FF4AC721249134B984701A8A2
S1130D20124B984734352846114B9847074601A87B
S1130D30104B984700240BE00020EBE70020E9E784
S1130D400120E7E70134A4B2414428460A4B9847FE
S1130D502146A74201D9B442F4D3204602B0BDE8EB
S1130D60F08100BF3C2800003D0E00005108000047
S1130D70110F00005F080000890E0000F8B50D4651
S1130D8016461F46044618B321B32AB333BB0020CA
S1130D903A221549154B98473A46314604F1340036
S1130DA0134B9847E0B9294604F10800114B9847C2
S1130DB0034658B9104A6260104A2260104AA26081
S1130DC0104AE260104A2261104A62611846F8BD76
S1130DD00020DDE70020DBE70020D9E70120D7E78A
S1130DE06FF00C03F2E700BF3C2800003D0E00004A
S1130DF0450E0000691D0000010D00006D0C00008F
S1130E00CD0C0000510C0000290C00003D0C00002A
S1130E1010B5044661220649003018BF0120054B75
S1130E20984704F10800044B9847002010BD00BF08
S1130E303C2800003D0E0000ED1D000000B900BE7E
S1130E407047000070B50E461546044678B181B16E
S1130E508AB9002028220A490A4B98476B1E1D4272
S1130E600BD163600020A060E060266070BD0020AC
S1130E70F0E70020EEE70120ECE76FF00C0070BD16
S1130E805C2800003D0E000038B50D460446A8B1AC
S1130E9091B1012040220C490C4B9847E268A368A9
S1130EA09A420DD0226861680B40D35C2B70A36812
S1130EB00133A360002038BD0020EBE70020E9E700
S1130EC06FF0090038BD00BF5C2800003D0E000033
S1130ED038B50D46044651220B49003018BF012095
S1130EE00A4B98472268E36861680B40D554E3686D
S1130EF0A2689A1A61688A4201D9591AA160013319
S1130F00E360002038BD00BF5C2800003D0E0000F7
S1130F1010B5044667220549003018BF0120044B70
S1130F209847E068A368C01A10BD00BF5C280000A1
S1130F303D0E0000C0EB0010C3004FF47A7000FBBC
S1130F4003F0704710B50D4A13889BB213800C4B05
S1130F5098470C4B98470C4B984704200B4CA047E0
S1130F600B4B984740F6FB70A0470A4A136943F4B9
S1130F7000731361084B984710BD00BF0040004147
S1130F80B9150000CD150000AD15000035150000A1
S1130F90E9150000000800401D10000008B51C4AB7
S1130FA0138C03F01F0303EB430188001949084421
S1130FB002EB031292F84E2012F0010F0AD11A012B
S1130FC002F1824202F5204292F84E2012F0020F02
S1130FD00BD108BD1A0102F1824202F5204201211F
S1130FE082F84E104368984708BD1A0102F1824204
S1130FF002F52042022182F84E100121064A1160B6
S113100003EB43039A00034B9B589847E1E700BF67
S113101000A00041C0000020505E022030B43E4ACF
S113102013889BB223F002039BB2138053889BB2B4
S113103023F47C539BB2538013889BB243F0010387
S11310401380354B1B8813F0010FFAD1324A4FF449
S113105080731380537B03F0FE0343F00103537347
S1131060002353612D4901F5C070506301F560718F
S1131070916315E02A4A52F83350274C191D09018F
S11310806018655002EBC302117941715179817185
S1131090D188224A02EB0312A2F880110133DBB299
S11310A01F2BE7D900230AE003F11F010AB2002A2B
S11310B010DA002A1CDA002A24DA0133DBB2042B0A
S11310C0F2D9154A13889BB243F00203138000201F
S11310D030BC7047500901F01F050124AC4020309A
S11310E0104D45F82040BFF34F8FBFF36F8FE0E7FB
S11310F0500901F01F050124AC406030094D45F84A
S11311002040D8E7520901F01F01012000FA01F143
S1131110044840F82210D0E700A00041C00000209D
S11311208028000000E100E091B942B9000100F11B
S1131130824000F52040022380F84C3070470001C3
S113114000F1824000F52040022380F84D307047C2
S1131150012900D0704742B1000100F1824000F53E
S11311602040012380F84D30F4E7000100F1824073
S113117000F5204080F84C1070470000034B03EB4F
S11311800010C0F888110020704700BFC000002084
S1131190034B03EB0010C0F884110020704700BF1C
S11311A0C0000020074B03EB0010B0F880319BB265
S11311B023F4806343EA812189B2A0F880110020DE
S11311C0704700BFC000002030B4184A02EB001280
S11311D0D2F88851B2F88031C3F30123B2F88021E8
S11311E012F4006F07D001FA03F42C440F4A02EB07
S11311F00012C2F888410D4A02EB0012D2F8844171
S1131200B2F8802112F4806F07D001FA03F323446B
S1131210064A02EB0012C2F8843189B2034B03EB95
S11312200010A0F88211002030BC7047C0000020DC
S113123010B40E4A02EB0012B2F880319BB243F0B4
S11312400103A2F880310A4C031D1B01E25842F04D
S11312500202E25029B1012303FA00F0226910438B
S1131260206100205DF8044B704700BFC0000020DF
S113127000A0004101EB41018A00024B13440360CA
S113128000207047C000002008B5014B984708BDF6
S11312909D0F000008B5014B984708BD9D0F000045
S11312A008B5014B984708BD9D0F000008B5014BD8
S11312B0984708BD9D0F000008B5014B984708BD2D
S11312C09D0F000070B582B02A4B5A690192019AB1
S11312D05A61294B1868EC222849003018BF0120B4
S11312E0274B98474FF0FF3535E0264B03EBC606F6
S11312F07568B5F1FF3F03D01F4B1B68284698471C
S11313000123A340019C24EA03040194019B93FA62
S1131310A3F4B4FA84F40BB94FF0FF34B4F1FF3FF3
S113132014D00220002101E0013BD8B28142E0D870
S11313304318C3F347031E46124A12F83320A2424D
S1131340D3D0A242F0DA0133D9B2EFE7094B5A699C
S11313500192019A5A61019B4BB1019B93FAA3F448
S1131360B4FA84F4002BD9D14FF0FF34D6E702B09D
S113137070BD00BF002800404006002090290000F6
S11313803D0E000080290000324B5B6813F0010F12
S113139020D1304B5B6813F0030FFAD12D4B1B782F
S11313A013F0020F0ED02B4A137803F0FD031370D1
S11313B0284B5B6813F0030FFAD1264B5B6813F0DC
S11313C0020FFAD10122234B1A70224B5B6813F0EF
S11313D0030FFAD11F4B5B6813F0010FFAD11D4ABA
S11313E0137803F0EF0313701A4B5B6813F0030FC9
S11313F0FAD1184B00225A704FF4805199609A61C7
S113140019635A63DA614FF480321A621A7842F02F
S113141002021A700F4B5B6813F0030FFAD10E4BE4
S11314204FF08072C3F88020BFF34F8FBFF36F8FEC
S1131430C3F880211A604FF00072C3F88020BFF314
S11314404F8FBFF36F8FC3F880211A60034B18606E
S1131450002070470028004000E100E04006002022
S113146010B40023012B0DD81C46114A02EBC30211
S11314705268824202D00133DBB2F3E70C4B13F81B
S1131480342000E0FF22FF2A0FD041B9012393400A
S1131490084AD360536100205DF8044B7047012370
S11314A09340044A13610020F6E74FF0FF30F3E75E
S11314B0802900000028004008B5014B984708BD6A
S11314C0C512000008B5014B984708BDC5120000BD
S11314D0002308E0154AD05C03F14801144A42F89D
S11314E021000133DBB2422BF4D900231F2B1BD87C
S11314F010B40E4A02EB4301B1F844400C49181DE4
S113150041F8304002EB830292F8842001EBC001E1
S11315104A71D243D2B20A710133DBB21F2BE8D92C
S113152000205DF8044B704700207047A829000094
S113153000E0004110F0010F08D0174A174B1A625F
S1131540164B5A6843F6FD731A42F9D110F0020F94
S113155008D0134A114B5A62104B5A6843F6FD7374
S11315601A42F9D110F0040F08D00E4A0B4B9A62BC
S11315700A4B5A6843F6FD731A42F9D110F0080F6A
S113158008D0094A054BDA62044B5A6843F6FD73E6
S11315901A42F9D1704700BF07210100001C004026
S11315A00821020001210C00082101000122014B45
S11315B05A71704700080040034BDA6902F47C5208
S11315C0DA6101221A74704700140040044A054B82
S11315D09A61044B1B6913F0020FFAD0704700BFE5
S11315E046260003001000404222234BC3F8842007
S11315F07722A3F540635A63204BDB6B13F0060F8D
S1131600FAD11E4B4FF484329A63022283F83020BD
S11316101A4BDB6B13F0020FFAD14222164BC3F8BC
S113162088202F22A3F540639A64144B1B6D13F09A
S1131630060FFAD1114B4FF40062DA64022283F8E8
S113164044200E4B1B6D13F0020FFAD10B4B1B6C95
S113165013F0010F04D1094B1B6C13F0020FF5D0EA
S1131660064B5B6D13F0010F04D1044B5B6D13F05B
S1131670020FF5D0704700BF001C0040001000406E
S113168008B5806803680021984708BD38B504464A
S1131690C160074B0B60074B1860074D00212846BB
S11316A0064B98472B689C60054A1A6038BD00BFFA
S11316B0200000C044060020F45E022075120000E1
S11316C081160000C268136843F001031360704779
S11316D0012900D9704738B5144605460122002176
S11316E008460C4B9847E968143100200A4B984788
S11316F021460020094B984700210846084B98478B
S11317004FF416410020074B984700210846064B2A
S1131710984738BD29110000911100007D11000087
S1131720A5110000C91100003112000000B583B0FA
S1131730084B1868C3681A69019201229A60019BD8
S113174013F0010F03D003680BB10021984703B0D5
S11317505DF804FB4406002000B583B00D4B9B7874
S1131760DBB20193019B13F0020F06D00A4B1B68F6
S11317701BB1084A5068984709E0019B13F0010F18
S113178005D0054B5B6813B1024A5068984703B013
S11317905DF804FB00000241F85E022070B489B0D9
S11317A006466C460C4D0FCD0FC495E80F0084E837
S11317B00F00002007280AD808AB03EB800353F876
S11317C0203CB34201D00130F4E7C0B200E0002075
S11317D009B070BC704700BFAC2A000010B5846922
S11317E0237E13F0010F03D0A37D13F0010F12D158
S11317F0237E13F0020F03D0A37D13F0020F0FD149
S1131800237E13F0040F15D0638B03F0370363B109
S1131810FF23638310BD012323750368984710BD1C
S1131820022323758368984710BD4368A16AC9B22F
S1131830984710BD237EDB0900D110BD8023237699
S1131840C3689847638B9BB26383F6E7034B984264
S113185000D07047024B1960FBE700BF0034004022
S11318604806002008B5044B98478000C0B22E30CB
S113187000F0FE0008BD00BF9D17000008B50C4B2A
S11318809847002343B140F26B220A4900200A4BD7
S113189098470023184608BD03EB4302D100074ACA
S11318A00A4492F820209042F4D00133DBB2E9E7F5
S11318B09D170000202B00003D0E0000AC2A000004
S11318C038B504463C4B9847E36913F0010F22D125
S11318D000EB4003DA00394B13445A6A02F01C024D
S11318E0E36913F0030FFBD1236813F0020F0BD04D
S11318F0236823F002032360E36913F0030FFBD191
S1131900E36913F0020FFBD142F001022260E369A4
S113191013F0030FFBD1E36913F0010FFBD100EBCC
S11319204003DA00254B13445B6A2360E36913F038
S1131930030FFBD100EB4003DA00204B13449B6AF6
S11319406360E36913F01F0FFBD142000244D1002E
S11319501A4B0B44DA6AA2605B6A13F4005F0AD183
S113196013F4C04F07D100EB4003DA00134B1344C8
S11319701B8EA3810FE042000244D1000F4B0B44A5
S1131980198EA28961F30C02A28193F83220A389F3
S113199062F34F33A381094A43001D18E9000D4641
S11319A0114491F83310A1732A4492F8343084F826
S11319B03030002038BD00BF7D180000AC2A000084
S11319C008B50D4B9847002343B140F2CE320B4982
S11319D000200B4B98474FF0FF3008BD03EB430248
S11319E0D100084A0A4492F83820904202D00133C8
S11319F0DBB2E9E758B208BD9D170000202B0000B8
S1131A003D0E0000AC2A000038B505460C460846D9
S1131A10334B9847C0B2E36913F0010F22D100EBB6
S1131A204003DA002F4B1344DA6B02F01C02E36923
S1131A3013F0030FFBD1236813F0020F0BD02368BC
S1131A4023F002032360E36913F0030FFBD1E3697E
S1131A5013F0020FFBD142F001022260E36913F09C
S1131A60030FFBD1E36913F0010FFBD100EB40033B
S1131A70DA001C4B1344DB6B2360E36913F0030FA0
S1131A80FBD100EB4003DA00164B13441B6C63607C
S1131A90E36913F0040FFBD142000244D100114B5F
S1131AA00B445A6CE26093F83F3003F00303AB81BC
S1131AB0012B94BF00230123626A22F4804242EA8C
S1131AC083336362E36913F0040FFBD100EB40003E
S1131AD0C200044B1344B3F84A30EB81002038BDF4
S1131AE0C1190000AC2A000070B5054604692668D7
S1131AF0C6F3C06640F2CD529949003018BF0120A8
S1131B00984B98476B68012B57D0636823F4802364
S1131B106360E36913F0040FFBD12B8813F4806F27
S1131B2056D06A8812F0010F04D06A8892B242F447
S1131B3080626A8040F2FE7202EA4302E36913F0B3
S1131B40040FFBD1636A03F48043134343F400435B
S1131B506362E36913F0040FFBD12E694FF6FF7241
S1131B60337EDBB21846511E1AB10A4613F0030F36
S1131B70F6D02268C2F3C062E36913F0040FFBD10C
S1131B80638B9BB210F0010F00F09C8013F0020FE6
S1131B9032D0012222766A8892B242F480526A805C
S1131BA06A8892B222F4807292B26A8013F0010FB2
S1131BB000F0D1806FF0040070BD002EA5D06368E2
S1131BC043F480236360E36913F0040FFBD1A4E7BB
S1131BD05B00DBB26A8802F001021A43E36913F086
S1131BE0040FFBD1636A03F4804313436362E36924
S1131BF013F0040FFBD1B0E713F0040F1FD16B886F
S1131C0013F4806F39D02B881B125B0003F006029B
S1131C10E36913F0040FFBD1636A03F480431343B5
S1131C2043F0F1036362E36913F0040FFBD16B88A3
S1131C309BB223F480639BB26B80002070BD6B6801
S1131C40002B04DD6B889BB243F480536B806B885C
S1131C5013F4004F08D16B889BB223F480739BB2BA
S1131C606B806FF0010070BD636843F440336360C0
S1131C70E36913F0040FFBD1EDE7686898B96B884A
S1131C8013F4004F06D16B889BB223F480739BB28C
S1131C906B8070BD636843F440336360E36913F0A1
S1131CA0040FFBD1EFE7AB681B78A362E36913F081
S1131CB0040FFBD1AB680133AB606B68013B6B6015
S1131CC0002070BD10F0020F48D0696800293DD093
S1131CD013F0040F3AD10139696001B9E2B1012965
S1131CE018D06B684BB96B8813F4004F1DD16B8807
S1131CF09BB223F480739BB26B80AA68531CAB60C5
S1131D00E36913F0040FFBD1A36A13700223237653
S1131D10002070BD002AE4D0636843F4802363602C
S1131D20E36913F0040FFBD1DBE7636823F48073EA
S1131D306360E36913F0040FFBD1636843F4403339
S1131D406360E36913F0040FFBD1D0E70223237629
S1131D506FF0010070BD6FF0030070BD002070BD16
S1131D60202B00003D0E000070B50C460646CB2229
S1131D701849003018BF0120174B98472046174BCD
S1131D809847054608B1284670BDB46131462046DF
S1131D90134B98472046134B9847002416E04109FB
S1131DA000F01F02012393400F4A01F1200642F87C
S1131DB02630BFF34F8FBFF36F8F01F1600642F8F7
S1131DC0263042F821300130C0B20134032CE6D968
S1131DD0D9E700BF202B00003D0E0000C118000011
S1131DE04D1800006518000000E100E082691368E6
S1131DF043F002031360D36913F0030FFBD1704760
S1131E00836999627047836901229A75704783696F
S1131E1002229A757047000038B50D4604464FF407
S1131E20A8620649003018BF0120054B9847256178
S1131E3029462046034B984738BD00BF202B00009D
S1131E403D0E0000091A000070B51B4E044640F216
S1131E505D523146003018BF0120184DA84724694F
S1131E6040F22D623146201C18BF0120A847236888
S1131E7043F002032360E36913F0030FFBD1042151
S1131E804FF6FF72E36913F0040FFBD1638BC3F3C6
S1131E900113012B0BD0013A002AF3DC013908D0DD
S1131EA010236383E36913F0040FFBD1E8E70020F8
S1131EB070BD6FF0050070BD202B00003D0E0000CA
S1131EC02DE9F04105460E460469DFF8A0824FF47F
S1131ED0BF624146003018BF0120A24FB8472869AD
S1131EE040F2F9524146003018BF0120B84740F291
S1131EF0FA524146301C18BF0120B8476B8813F4CE
S1131F00807F40F02A8173889BB243F4807373808E
S1131F1096E8070085E80700636843F4807363600C
S1131F20E36913F0040FFBD128468F4B984703460F
S1131F30002800F0B0806A8892B222F4807292B2D3
S1131F406A80BDE8F0816FF00400B7E0738813F491
S1131F50004F07D16B889BB223F480739BB26B80D4
S1131F60BDE8F081636843F440336360E36913F0D0
S1131F70040FFBD1EEE713F0040F1FD16B8813F4A9
S1131F80806F39D02B881B125B0003F00602E369D3
S1131F9013F0040FFBD1636A03F48043134343F04B
S1131FA0F1036362E36913F0040FFBD16B889BB206
S1131FB023F480639BB26B8000206BE06B68002B82
S1131FC004DD6B889BB243F480536B806B8813F4FD
S1131FD0004F08D16B889BB223F480739BB26B8053
S1131FE06FF0010056E0636843F440336360E369D3
S1131FF013F0040FFBD1EDE7686898B96B8813F40C
S1132000004F06D16B889BB223F480739BB26B8024
S113201040E0636843F440336360E36913F0040F02
S1132020FBD1EFE7AB681B78A362E36913F0040FFD
S1132030FBD1AB680133AB606B68013B6B60002084
S113204028E017F0020F00F083806968002977D038
S113205013F0040F74D10139696009B9002A55D00D
S1132060012951D06B684BB96B8813F4004F56D1DA
S11320706B889BB223F480739BB26B80AA68531C59
S1132080AB60E36913F0040FFBD1A36A137002235E
S11320902376002003466A8812F4807F5AD0286988
S11320A04FF6FF72037EDBB21F46511E002A3FF437
S11320B04AAF0A4613F0030FF4D0002000287FF43F
S11320C045AF2268C2F3C062E36913F0040FFBD189
S11320D0638B9BB217F0010FB3D013F0020F3FF4E0
S11320E04AAF012222766A8892B242F480526A8010
S11320F06A8892B222F4807292B26A8013F0010F5D
S113210023D06FF00400C5E7002AABD0636843F422
S113211080236360E36913F0040FFBD1A2E76368D3
S113212023F480736360E36913F0040FFBD16368E5
S113213043F440336360E36913F0040FFBD197E782
S1132140022323766FF00100A4E76FF00300A1E7F8
S113215000209FE71846BDE8F0816FF00500BDE858
S1132160F08100BF3D0E0000E91A0000202B0000A2
S113217008B5024B1868024B984708BD4806002072
S1132180DD17000008B5024B1868024B984708BDDC
S113219048060020DD17000008B5024B1868024B02
S11321A0984708BD48060020DD17000008B5024B1B
S11321B01868024B984708BD48060020DD17000048
S11321C0034B6FF07F425A6005221A60704700BFCC
S11321D010E000E008B5014B984708BDC12100009C
S11321E0080E0DE00D4B6FF07F40586098600B4B6C
S11321F01B6813F4803FFAD001F17F41013110468E
S1132200431EDAB20028EDD1044B59609960034BA8
S11322101B6813F4803FFAD0704700BF10E000E061
S1132220034B984200D07047024B1960FBE700BF94
S1132230006001414C06002038B505460469E36A94
S113224013F0010F04D00123E362036803B198473C
S1132250A36A13F0080F05D00823E3626B680BB17F
S11322602846984738BD000000233BB10020704742
S113227003EB43042301084618440CE010B403EBB9
S113228043010A0105498A588242F1D00133DBB285
S1132290002BF4D000205DF8044B704700000020B0
S11322A0002323B100207047094808440DE010B40E
S11322B003EB83029100074A0A44126B8242F3D073
S11322C00133DBB2002BF3D000205DF8044B7047E0
S11322D03000002000000020F8B507460C460846F0
S11322E0604B9847002800F0B280064620465E4BBB
S11322F098470546002800F0AD803C61A36813F0C0
S1132300010F19D1A36813F0030FFBD1236813F055
S1132310020F0BD0236823F002032360A36813F099
S1132320030FFBD1A36813F0020FFBD10123236039
S1132330A36813F0030FFBD1A36813F0010FFBD1C3
S1132340B3682360A36813F0030FFBD1337B63717D
S1132350737BA377336923622B69E363A368C3F3B5
S11323600D03002BFAD1AB682364A36813F0800F2C
S1132370FBD1AB68F362AB79052B6ED8DFE803F0D1
S1132380033F474F575FEB6873616364A36813F4BB
S11323907C5FFBD10223237139462046334B984797
S11323A0B5F90430002B0DDB5A0903F01F0301219A
S11323B001FA03F320322E4941F82230BFF34F8F44
S11323C0BFF36F8FB5F90430002B09DB5A0903F012
S11323D01F03012101FA03F36032254941F8223039
S11323E0B5F90430002B3BDB590903F01F0301222C
S11323F002FA03F31E4A42F821300020F8BDEB68CC
S1132400B361A364A36813F47C5FFBD1C2E7EB68F8
S1132410F361E364A36813F47C5FFBD1BAE7EB6870
S113242033622365A36813F47C5FFBD1B2E7EB68E6
S113243073626365A36813F47C5FFBD1AAE7EB685E
S1132440B362A365A36813F47C5FFBD1A2E76FF0CA
S11324500900F8BD6FF00900F8BD6FF01B00F8BD6E
S11324600020F8BD69220000A12200002122000002
S113247000E100E00269136843F00203136093680B
S113248013F0030FFBD1704770B50E46154604696F
S11324902046044B984720B1E66683791C3344F800
S11324A0235070BDA12200000269936813F0030F4A
S11324B0FBD11068C0F34000704700207047000053
S11324C008B5024B1868024B984708BD4C0600201B
S11324D039220000704700002DE9F04383B05A4BC5
S11324E04FF48002C3F814214FF40002C3F81821FA
S11324F00A20564EB047564C56492046564B9847EC
S11325002046564B98474FF4006221212046544BF5
S113251098470A2702AD05F8047D143401222946A0
S11325202046DFF84891C84701220DF103012046F7
S1132530DFF84481C0473846B0470B238DF8043098
S1132540012229462046C84701220DF102012046F6
S1132550C0473846B0479DF80330762B05D0182283
S113256040494148414B9847FEE79DF80230732BA0
S1132570F5D120223E493C48C8470C278DF8047009
S113258008238DF805303B4D022201A92846C8478F
S113259012238DF8043014238DF80530022201A98A
S11325A02846C84715238DF8043002268DF80560A7
S11325B0324601A92846C84740238DF80430D02369
S11325C08DF80530324601A92846C8471E238DF8E8
S11325D0043031238DF80530324601A92846C84716
S11325E03A238DF804308DF80570324601A9284647
S11325F0C8473E238DF8043019238DF80530324640
S113260001A92846C84773238DF80430F1238DF8B7
S11326100530324601A92846C84717238DF80430EF
S11326200B238DF80530324601A92846C8473223CA
S11326308DF8043080238DF80530324601A92846F0
S1132640C84703B0BDE8F08300800041C50800001E
S1132650D45E02200C5F0220F50A0000D90A0000B3
S1132660E50A000064000020705E0220FD0A0000FC
S113267044000020E85E0220310B000000B583B066
S11326802A4B98472A482B4B98472B4C022204216B
S113269020462A4B98472046294B98474FF4163238
S11326A030212848284B9847284B984728490C2024
S11326B0284B98476846284B9847284B19681A6A4C
S11326C01C6954400C4054406846254B984714F408
S11326D0805FEFD001A8204B9847204B19681A6AF5
S11326E01C6954400C40544001A81D4B984714F4F5
S11326F0805FEFD11B4D7F22294601201A4CA04751
S11327001A4E30461A4B9847B92229460120A04751
S1132710BA2229460120A0470A4A00213046154B17
S113272098470022144BC3F81826FEE7D102000094
S1132730705E0220110E0000545E0220F90B0000AE
S1132740BD0B000050060020C5270000D92400005E
S1132750D5240000690900005108000000800041F0
S11327605F0800003C2B00003D0E0000C05E02200C
S1132770C5160000D11600003858022070B50D4E61
S11327800D4CA41BA4100025A54209D10B4E0C4CE2
S113279000F0E6F9A41BA4100025A54205D170BDE4
S11327A056F8253098470135EEE756F82530984716
S11327B00135F2E76C2B00006C2B00006C2B000041
S11327C0702B000002440346934200D1704703F883
S11327D0011BF9E72E2E2F68616C2F7372632F682B
S11327E0616C5F63616D6572615F6173796E632EA5
S11327F0630000002E2E2F68616C2F7372632F68A4
S1132800616C5F6932635F6D5F73796E632E630021
S11328102E2E2F68616C2F7372632F68616C5F6951
S11328206F2E63002E2E2F68616C2F7372632F68D6
S1132830616C5F70776D2E63000000002E2E2F6890
S1132840616C2F7372632F68616C5F75736172744E
S11328505F6173796E632E63000000002E2E2F6873
S1132860616C2F7574696C732F7372632F7574693F
S11328706C735F72696E676275666665722E63005B
S11328800050200000C51E0A0000000000000000E7
S11328900000000000000000000000000000000034
S11328A00000000000000000000000000000000024
S11328B00000000000000000000000000000000014
S11328C00000000000000000000000000000000004
S11328D000000000000000000000000000000000F4
S11328E000000000000000000000000000000000E4
S11328F000000000000000000000000000000000D4
S113290000000000000000000000000000000000C3
S113291000000000000000000000000000000000B3
S113292000000000000000000000000000000000A3
S11329300000000000000000000000000000000093
S11329400000000000000000000000000000000083
S11329500000000000000000000000000000000073
S11329600000000000000000000000000000000063
S11329700000000000000000000000000000000053
S11329800C0000000C0000000D0000000D00000011
S11329902E2E2F68706C2F6569632F68706C5F65CD
S11329A069632E63000000000002000000020000C2
S11329B00000000000000000000000000000000013
S11329C00000000000000000000000000000000003
S11329D000000000000000000000000000000000F3
S11329E000000000000000000000000000001E05C0
S11329F000000000000000000000000000000000D3
S1132A0000000000000000000000000000000000C2
S1132A1000000000000000000000000000000000B2
S1132A2000000000000000000000000000000000A2
S1132A300000000000000000000000000000000092
S1132A400000000000000000000000000000000082
S1132A500000000000000000000000000000000072
S1132A600000000000000000000000000000000062
S1132A700000000000000000000000000000000052
S1132A800000000000000000000000000000000042
S1132A900000000000000000000000000000000032
S1132AA000000000000000000000000000300040B2
S1132AB00034004000200141004001410000004377
S1132AC00004004300080043000C00430100000020
S1132AD00400104000000300020070008AE00000BF
S1132AE00000000007000000140010300001000086
S1132AF0E5E600000000D700006CDC0200000000E6
S1132B0000000000000000000000000000000000C1
S1132B1000000000000000000000000000000000B1
S1132B202E2E2F68706C2F736572636F6D2F687013
S1132B306C5F736572636F6D2E6300002E2E2F68B9
S1132B40616C2F696E636C7564652F68616C5F637B
S1132B50616D6572615F6173796E632E6800000058
S1132B60F8B500BFF8BC08BC9E4670478902000057
S1132B70F8B500BFF8BC08BC9E467047650200006B
S1132B80006001415500000000090000020000003F
S1132B900000000000000000000000000000000031
S1132BA000000000000000000000000010270000EA
S1132BB00060014155000400BF030000070000004D
S1132BC002000000564944202F20504944207265D9
S1132BD06164207375636365737366756C2021216A
S1132BE0210D0A00564944202F2050494420496EA3
S10F2BF076616C6964202121210D0A002B
S9030000FC
