:1000000078630320E10200007D0300007D0300000F
:100010007D0300007D0300007D0300000000000060
:100020000000000000000000000000007D03000050
:100030007D030000000000007D0300007D03000040
:100040007D0300007D0300007D0300007D030000B0
:100050007D0300007D0300007D0300007D030000A0
:100060007D0300007D0300007D0300007D03000090
:100070007D0300007D0300007D0300007D03000080
:100080007D0300007D0300007D0300007D03000070
:100090007D0300007D0300007D0300007D03000060
:1000A000DD2D0000ED2D00007D0300007D0300002C
:1000B0007D0300007D0300007D0300008D2700000C
:1000C0009D270000AD270000BD270000CD270000C0
:1000D0007D0300007D0300007D0300007D03000020
:1000E0007D0300007D030000000000000000000010
:1000F00000000000E13500007D0300007D030000EA
:100100007D0300007D030000154B0000314B000013
:100110004D4B0000694B00007D0300007D03000093
:100120007D0300007D0300007D0300007D030000CF
:100130007D0300007D0300007D0300007D030000BF
:100140007D0300007D0300007D0300007D030000AF
:100150007D0300007D0300007D0300007D0300009F
:100160007D0300007D0300007D0300007D0300008F
:100170007D0300007D0300007D0300007D0300007F
:100180007D0300007D0300007D0300007D0300006F
:100190007D0300001D5300007D0300007D0300006F
:1001A0007D0300007D0300007D0300007D0300004F
:1001B0007D0300007D0300007D0300007D0300003F
:1001C0007D0300007D0300007D0300007D0300002F
:1001D0007D0300007D0300007D0300007D0300001F
:1001E0007D0300007D0300007D0300007D0300000F
:1001F0007D0300007D0300007D0300007D030000FF
:100200007D0300007D0300007D0300007D030000EE
:100210007D0300007D0300007D0300007D030000DE
:100220007D0300007D0300007D0300007D030000CE
:100230007D0300007D0300007D0300007D030000BE
:100240007D030000553500007D0300007D030000A4
:100250007D0300007D0300007D0300007D0300009E
:100260007D03000010B5054C237833B9044B13B15E
:100270000448AFF300800123237010BDB0040020B8
:1002800000000000A05F00000C4B43B10C480D497A
:1002900010B5AFF300800C48036823B910BD0A48BD
:1002A000036833B97047094B002BF7D0BDE8104005
:1002B0001847064B002BF5D0184700BF0000000080
:1002C000A05F0000B4040020A05F00000000000058
:1002D00080B500AF014B984700BF80BD310D0000D5
:1002E00080B582B000AF1C4B7B601C4B3B607A68D2
:1002F0003B689A420CD007E03B681A1D3A607A6866
:10030000111D796012681A603B68154A9342F3D355
:10031000144B3B6004E03B681A1D3A6000221A60EF
:100320003B68114A9342F6D3104B7B60104A7B68BE
:1003300023F07F0393600E4A0D4BD3F8883043F4CB
:100340007003C2F88830BFF34F8FBFF36F8F094B34
:100350009847094B9847FEE7A05F00000000002087
:10036000A4040020B00400207863022000000000F4
:1003700000ED00E0055A0000A958000080B400AF6D
:10038000FEE780B485B000AFF8600B467A60FB7280
:10039000FA7AFB682032796843F8221000BF1437DC
:1003A000BD465DF8047B704780B483B000AF7860D1
:1003B0007B685B6943F480627B685A6100BF0C37DD
:1003C000BD465DF8047B704780B483B000AF7860B1
:1003D0007B685B6943F400527B685A6100BF0C374D
:1003E000BD465DF8047B704780B483B000AF786091
:1003F0007B689B6943F080027B689A6100BF0C3781
:10040000BD465DF8047B704780B483B000AF786070
:100410007B689B6943F400627B689A6100BF0C377C
:10042000BD465DF8047B704780B483B000AF786050
:100430007B681B6A43F008027B681A6200BF0C37B6
:10044000BD465DF8047B704780B483B000AF786030
:100450007B681B6A43F400627B681A6200BF0C373A
:10046000BD465DF8047B704780B485B000AFF8608E
:100470000B467A60FB72FB7AFA68DB01134408339F
:100480007A681A6000BF1437BD465DF8047B704778
:1004900080B485B000AFF8600B467A60FB72FB7ADF
:1004A000FA68DB01134404337A681A6000BF14371A
:1004B000BD465DF8047B704780B485B000AFF8603E
:1004C0000B467A60FB72FB7AFA68DB01134418333F
:1004D0007A681A6000BF1437BD465DF8047B704728
:1004E00080B485B000AFF8600B467A60FB72FB7A8F
:1004F000FA68DB01134414337A681A6000BF1437BA
:10050000BD465DF8047B704780B485B000AF78606D
:10051000084611461A460346FB700B46BB7013464D
:100520007B70FA78BB787968D2010A44134430337F
:100530001B78FB73FB7B23F00F03FB737B7803F0CB
:100540000F03DAB2FB7B1343FB73FA78BB7879684D
:10055000D2010A4413443033FA7B1A7000BF1437B7
:10056000BD465DF8047B704780B485B000AF78600D
:10057000084611461A460346FB700B46BB701346ED
:100580007B70FA78BB787968D2010A44134430331F
:100590001B78FB73FB7B03F00F03FB737B781B0162
:1005A000DAB2FB7B1343FB73FA78BB787968D2012C
:1005B0000A4413443033FA7B1A7000BF1437BD4627
:1005C0005DF8047B704780B485B000AF7860084662
:1005D00011461A460346FB700B46BB7013467B70F0
:1005E000FA78BB787968D2010A44134440331B7807
:1005F000FB73FB7B23F00103FB737A78FB7B1343D4
:10060000FB73FA78BB787968D2010A44134440330B
:10061000FA7B1A7000BF1437BD465DF8047B704743
:1006200090B482B000AF78600B46FB701346BB708D
:10063000FA78BB78F878B9787C68C0012044014426
:1006400040310978C9B241F00401C8B27968D201D9
:100650000A441344403302461A7000BF0837BD46AF
:1006600090BC704790B482B000AF78600B46FB70CE
:100670001346BB70FA78BB78F878B9787C68C0010B
:100680002044014440310978C9B221F00401C8B2C4
:100690007968D2010A441344403302461A7000BFFD
:1006A0000837BD4690BC704780B485B000AFF86095
:1006B0000B467A60FB72FB7AFA68DB01134428333D
:1006C0007A681A6000BF1437BD465DF8047B704736
:1006D00080B582B000AF03463960FB711346BB7131
:1006E000BB79012B1CD0022B37D0002B4ED1FB79CC
:1006F0003A6819462A482B4B98473B689BB243F00F
:100700008042FB7919462648274B98473B681B0CCB
:1007100043F04042FB7919462148234B98473AE081
:10072000FB793A6819461E481E4B98473B689BB2B6
:1007300043F0804343F40033F9791A4618481A4BC2
:1007400098473B681B0C43F0404343F40033F9796E
:100750001A461348144B98471DE0FB793A6819462E
:100760000F48124B98473B689BB243F08042FB799D
:1007700019460B480C4B98473B681B0C43F0404212
:10078000FB7919460648084B984704E04622084979
:100790000020084B984700BF0837BD4680BD00BF0A
:1007A0000080004191040000A906000069040000D7
:1007B000105C00006918000080B582B000AF0346ED
:1007C0003960FB711346BB71BB79002B06D0FB79F6
:1007D0003A6819460648074B984705E0FB793A689E
:1007E00019460348044B984700BF0837BD4680BDF3
:1007F00000800041B9040000E104000080B582B02F
:1008000000AF0346FB710B46BB7113467B717B79CE
:10081000012B0AD0022B1FD0002B34D1BA79FB79DF
:1008200019461E481E4B984733E0BB7901229A4077
:10083000FB79194619481B4B9847BA79FB79194639
:100840001648194B9847BB7901229A40FB79194603
:100850001248164B98471CE0BB7901229A40FB795D
:1008600019460E480F4B9847BA79FB7919460B4841
:100870000D4B9847BB7901229A40FB7919460748EE
:100880000B4B984705E089220A4900200A4B9847FC
:1008900000BF00BF0837BD4680BD00BF00800041DB
:1008A000650600009104000021060000B904000064
:1008B000E1040000105C00006918000090B585B0EC
:1008C00000AF786039607B685B09FB737B68DBB2E3
:1008D00003F01F03BB733B68B3F1FF3F06D1BA7B44
:1008E000F97B00231248134CA0471DE0BA7BF97B2B
:1008F00001230F480F4CA047BB7B03F00103002BE3
:1009000009D0BB7B5B08DAB23B68DBB2F97B0848F5
:10091000094CA04708E0BB7B5B08DAB23B68DBB25E
:10092000F97B0348054CA04700BF1437BD4690BD76
:1009300000800041C70500006905000009050000AE
:1009400080B582B000AF03460A46FB711346BB7107
:10095000FB795B09D8B2FB7903F01F03DBB2BA79EC
:100960001946034B984700BF0837BD4680BD00BFFE
:10097000FD07000080B582B000AF7860396039684B
:100980007868034B984700BF0837BD4680BD00BF5D
:10099000BD08000080B582B000AF03460A46FB7177
:1009A0001346BB71FB795B09D8B2FB7903F01F03D7
:1009B000012202FA03F3BA791946034B984700BFA4
:1009C0000837BD4680BD00BFD106000080B582B0AB
:1009D00000AF03460A46FB711346BB71FB795B0906
:1009E000D8B2FB7903F01F03012202FA03F3BA79AC
:1009F0001946034B984700BF0837BD4680BD00BF6E
:100A0000B907000080B500AF014B984700BF80BD1B
:100A1000ED1C000080B500AF402204211148124BAC
:100A200098471248124B984701210C20114B9847C8
:100A300001210C20104B98474FF440210C200F4B04
:100A4000984701210D200B4B984700210D200A4BA0
:100A500098474FF450210D20084B9847084B984772
:100A600000BF80BD001C0040830300000008004060
:100A7000A903000095090000410900007509000064
:100A80005D0F000080B500AF40220C210448054BEB
:100A900098470548054B9847054B984700BF80BDD0
:100AA000001C00408303000000080040E903000030
:100AB000490F000080B500AF12490E20124B984735
:100AC00012491020104B9847114911200E4B98479E
:100AD000104912200C4B98470F4913200A4B984796
:100AE0000E491420084B98470D491520064B98478E
:100AF0000C491620044B98470B491720024B984786
:100B000000BF80BD0A000E00750900000A00100039
:100B10000A0011000A0012000A0013000A00140063
:100B20000A0015000A0016000A00170080B500AF81
:100B30000248034B984700BF80BD00BF000800403B
:100B40004904000080B500AF044B984704490548AC
:100B5000054B9847054B984700BF80BD2D0B000003
:100B6000002C004300630220610E0000B50A000063
:100B700080B500AF402208210648074B9847422223
:100B800003210448044B98470448054B984700BF8D
:100B900080BD00BF001C004083030000000800402F
:100BA000C903000080B500AF04495B20044B98479F
:100BB00004495C20024B984700BF80BD02005B00E7
:100BC0007509000002005C0090B583B002AF084BCD
:100BD0009847002300931023064A07490748084C0A
:100BE000A047084B984700BF0437BD4690BD00BFE3
:100BF000710B0000CC04002000340040B0620220E1
:100C000025150000A50B000080B500AF002168206D
:100C1000074B984707496820074B984700216920F0
:100C2000034B984705496920034B984700BF80BD97
:100C30004109000002006800750900000200690017
:100C400080B500AF432225210648074B9847422232
:100C500003210448044B98470448054B984700BFBC
:100C600080BD00BF001C004083030000000800405E
:100C70002904000080B500AF044B9847044905489B
:100C8000054B9847054B984700BF80BD410C0000BD
:100C9000000C00431463022065120000090C0000E0
:100CA00080B500AF0248034B984700BF80BD00BF2E
:100CB00010E000E0B90E000080B500AF02496B20E3
:100CC000024B984700BF80BD05006B00750900000E
:100CD00080B500AF0448054B9847402219210448CD
:100CE000044B984700BF80BD000800400904000085
:100CF000001C00408303000080B500AF064B9847FE
:100D0000064B9847064B984703461A46054906483E
:100D1000064B984700BF80BDD10C0000B90C000005
:100D2000A15200000060014194620220E113000022
:100D300080B500AF224B984700214B20214B9847AC
:100D400002214B20204B98474FF0FF314B201F4B87
:100D5000984700214C201B4B984702214C201A4BEE
:100D600098474FF0FF314C20184B984700215620F0
:100D7000144B984702215620134B98474FF0FF31F0
:100D80005620124B9847012157200E4B98470221BD
:100D900057200D4B98474FF0FF3157200B4B98478A
:100DA0000B4B98470B4B98470B4B98470B4B98476F
:100DB0000B4B98470B4B98470B4B984700BF80BD98
:100DC000050A0000CD090000950900007509000022
:100DD000150A0000850A0000450B0000C90B000041
:100DE000750C0000A10C0000F90C000080B485B067
:100DF00000AF7860EFF31083FB60FA687B681A60DD
:100E000072B6BFF35F8F00BF1437BD465DF8047B39
:100E1000704780B485B000AF7860BFF35F8F7B68A8
:100E20001B68FB60FB6883F3108800BF1437BD4666
:100E30005DF8047B704780B584B000AF786039609E
:100E40007B68FB60FB681B69002B04D0FB681B6997
:100E50003968F868984700BF1037BD4680BD00006C
:100E600080B582B000AF786039607B68002B04D019
:100E70003B68002B01D0012300E0002303F00103B5
:100E8000DBB2322208491846084B98477B6839681C
:100E90001846074B98477B68064A1A600023184695
:100EA0000837BD4680BD00BF2C5C000069180000FB
:100EB00041340000370E000080B582B000AF78608A
:100EC000054A7B681360044B1B681846034B984720
:100ED00000BF0837BD4680BDDC040020AD4B0000DC
:100EE00090B583B000AF0346FB80074B1C68FB88BE
:100EF0001846064B9847034619462046044B984728
:100F000000BF0C37BD4690BDDC0400203D1B000037
:100F1000C94B000090B583B000AF0346FB80074B80
:100F20001C68FB881846064B98470346194620461E
:100F3000044B984700BF0C37BD4690BDDC04002031
:100F4000711C0000C94B000080B500AF024B9847F0
:100F50000346184680BD00BF892E000080B582B0D0
:100F600000AF0023FB800EE0FB880C4ADB0013443B
:100F70004FF0FF325A60FB88084A002142F83310D4
:100F8000FB880133FB80FB88012BEDD90448054B1E
:100F90009847034618460837BD4680BDE004002048
:100FA00041110000FD2A000080B586B000AF7860D6
:100FB00039600023FB750023BB7500237B7512E0AD
:100FC000FB7D4D4ADB0013445A687B689A4207D187
:100FD000FB7D49493A6841F8332001237B7505E0E0
:100FE000FB7D0133FB75FB7D012BE9D93B68002BB1
:100FF0000ED17B7D83F00103DBB2002B02D06FF0BA
:101000000C0374E0002178683C4B984703466EE07F
:101010007B7D83F00103DBB2002B5AD00023FB75EC
:1010200016E0FB7D344A52F83330002B0DD1FB7DA6
:1010300031493A6841F83320FB7D2F4ADB001344E5
:101040007A685A6001237B7505E0FB7D0133FB75EF
:10105000FB7D012BE5D936E0FB7D274ADB001344FD
:101060005A68BB7D2449DB000B445B689A4227D257
:10107000BB7D214ADB0013445B68B3F1FF3F1FD007
:10108000BB7D1D4907F10C02DB000B4493E8030014
:1010900082E80300BB7DFA7D17481749DB00034453
:1010A000D2000A4492E8030083E80300FB7D124A61
:1010B000DB00134407F10C0292E8030083E803000D
:1010C000BB7D0133BB75BB7D012B02D8FB7D012BA2
:1010D000C2D97B7D83F00103DBB2002B02D06FF01D
:1010E0000C0304E001217868044B98470346184636
:1010F0001837BD4680BD00BFE0040020112C000061
:1011000080B582B000AF786001217868034B9847C2
:10111000034618460837BD4680BD00BF112C0000AD
:1011200080B582B000AF786000217868034B9847A3
:10113000034618460837BD4680BD00BF112C00008D
:1011400080B584B000AF78600023FB730223BB73CB
:101150002AE0BA7BFB7B13445B107B737B7B012B08
:1011600027D87B7B164ADB0013445A687B689A4277
:101170000BD17B7B124A52F83330002B1BD07B7B88
:101180000F4A52F83330984715E07B7B0C4ADB005E
:1011900013445A687B689A4203D27B7B0133FB730A
:1011A00002E07B7B013BBB73BA7BFB7B9A42D0D2D4
:1011B00002E000BF00E000BF1037BD4680BD00BFA9
:1011C000E004002080B58AB000AFF860B960134633
:1011D000FB80FB68143B7B627B6A9B8BBB82FB883A
:1011E000BB6148F20103FB82BB68FB617B6A07F1CC
:1011F000140211461846064B984738623B6A002B8A
:1012000001D03B6A00E0FB8818462837BD4680BD08
:101210001D48000080B58AB000AFF860B960134681
:10122000FB80FB68143B7B627B6A9B8BBB82FB88E9
:10123000BB614FF40043FB82BB68FB617B6A07F133
:10124000140211461846064B984738623B6A002B39
:1012500001D03B6A00E0FB8818462837BD4680BDB8
:101260001D48000080B584B000AF786039607B68AD
:10127000002B14BF01230023DBB25E220C49184669
:101280000C4B98477B68396818460B4B9847F860B9
:10129000FB68002B01D0FB6806E07B68074A9A6177
:1012A0007B68074A5A61002318461037BD4680BD47
:1012B0004C5C00006918000019460000C5110000D0
:1012C0001512000080B582B000AF78607B681846C8
:1012D000034B9847034618460837BD4680BD00BFFC
:1012E0006146000080B485B000AFF8600B467A60BC
:1012F0007B817B89C3F309031AB27B681BB203F4B9
:1013000080631BB213431BB29AB2FB689A83FB68DB
:101310009B8B18461437BD465DF8047B704780B43C
:1013200083B000AF786039607B6803F114023B68DA
:101330001A60002318460C37BD465DF8047B7047E1
:1013400080B584B000AFF860B9601346FB80FB68DD
:10135000002B04D0BB68002B01D0012300E0002348
:1013600003F00103DBB2342207491846074B9847C4
:10137000FB681B68FA88B968F868984703461846FE
:101380001037BD4680BD00BF685C000069180000D2
:1013900080B584B000AFF860B9601346FB80FB688D
:1013A000002B04D0BB68002B01D0012300E00023F8
:1013B00003F00103DBB23D2207491846074B98476B
:1013C000FB685B68FA88B968F8689847034618466E
:1013D0001037BD4680BD00BF685C00006918000082
:1013E00080B584B000AFF860B9607A60FB68002B0C
:1013F00004D0BB68002B01D0012300E0002303F0E0
:101400000103DBB233220A4918460A4B9847FB68AE
:10141000B9681846084B9847FB68084A1A60FB6889
:10142000074A5A60002318461037BD4680BD00BFEA
:101430007C5C00006918000009500000DD14000009
:101440000115000080B582B000AF78607B68002B8A
:1014500014BF01230023DBB24A220B4918460B4B71
:1014600098477B6818460A4B98470346002B02D0E2
:101470006FF0100304E07B681846064B9847002382
:1014800018460837BD4680BD7C5C00006918000026
:10149000815200001552000080B584B000AFF860A2
:1014A000B9607A60FB68002B14BF01230023DBB214
:1014B0007C2207491846074B9847FB687A68B96849
:1014C0001846054B9847002318461037BD4680BD87
:1014D0007C5C0000691800003552000080B584B0C3
:1014E00000AF78607B68FB60FB685B69002B03D012
:1014F000FB685B69F868984700BF1037BD4680BD40
:1015000080B584B000AF78607B68FB60FB689B6946
:10151000002B03D0FB689B69F868984700BF103721
:10152000BD4680BD80B586B000AFF860B9607A6016
:101530007B80FB68002B0AD0BB68002B07D07B6840
:10154000002B04D07B88002B01D0012300E0002376
:1015500003F00103DBB23A2219491846194B9847A8
:10156000FB6834337A8879681846174B98470346E6
:10157000002B02D06FF00C031EE0FB680833B96843
:101580001846124B984778617B69002B01D07B6924
:1015900012E0FB680E4A5A60FB680E4A1A60FB684C
:1015A0000D4A9A60FB680D4ADA60FB680C4A1A61C2
:1015B000FB680C4A5A61002318461837BD4680BDA7
:1015C000945C00006918000091180000413E000082
:1015D000B916000029160000691700000118000064
:1015E000D51700003D18000080B582B000AF7860CC
:1015F0007B68002B14BF01230023DBB26122074963
:101600001846074B98477B6808331846054B9847A0
:10161000002318460837BD4680BD00BF945C00001B
:1016200069180000ED3E000080B586B000AFF8609C
:10163000B9601346FB80FB687B617B69002B07D098
:10164000BB68002B04D0FB88002B01D0012300E0F5
:10165000002303F00103DBB240F23B1213491846AA
:10166000134B98477B69B3F844207B69B3F84C303F
:101670009A4202D06FF01B0313E07B69BA689A6448
:101680007B69FA88A3F84C207B690022A3F84420E8
:101690007B6901221A637B6908331846054B98471A
:1016A000FB8818461837BD4680BD00BF945C00001B
:1016B00069180000553F000080B588B000AFF860A1
:1016C000B9601346FB800023FB83FB68BB61BB69E9
:1016D000002B07D0BB68002B04D0FB88002B01D067
:1016E000012300E0002303F00103DBB24FF4AC72EE
:1016F00017491846174B984707F110031846164B21
:101700009847BB6934331846144B9847786107F102
:1017100010031846124B98470CE0BB6903F13402E2
:10172000FB8B591CF9831946BB680B4419461046BC
:101730000C4B9847FA8B7B699A4203D2FA8BFB8851
:101740009A42EAD3FB8B18462037BD4680BD00BFC6
:10175000945C000069180000ED0D0000E91900001C
:10176000130E00000519000090B585B000AF786039
:101770007B68083BFB60FB68B3F84420FB68B3F868
:101780004C309A4217D0FB6803F10800FB689A6C52
:10179000FB68B3F84430591C8CB2F968A1F8444096
:1017A00013441B781946084B9847FB6808331846C2
:1017B000064B984704E0FB6808331846044B9847EB
:1017C00000BF1437BD4690BD0D3F0000553F0000DF
:1017D000753F000080B584B000AF78607B68083B3F
:1017E000FB60FB6800221A63FB685B6A002B03D076
:1017F000FB685B6AF868984700BF1037BD4680BD3C
:1018000080B584B000AF78600B46FB707B68083B06
:10181000FB60FB683433FA7811461846064B98474C
:10182000FB689B6A002B03D0FB689B6AF8689847AB
:1018300000BF1037BD4680BD7519000080B584B06B
:1018400000AF78607B68083BFB60FB6800221A638E
:10185000FB68DB6A002B03D0FB68DB6AF8689847FB
:1018600000BF1037BD4680BD80B485B000AF0346D1
:10187000B9607A60FB73FB7B83F00103DBB2002B62
:1018800000D000BE00BF1437BD465DF8047B704732
:1018900080B584B000AFF860B9607A60FB68002B57
:1018A00007D0BB68002B04D07B68002B01D001233C
:1018B00000E0002303F00103DBB228220F491846A1
:1018C0000F4B98477B685A1E7B681340002B02D051
:1018D0006FF00C030EE07B685A1EFB685A60FB68D1
:1018E00000229A60FB689A68FB68DA60FB68BA6855
:1018F0001A60002318461037BD4680BDB45C000056
:101900006918000080B582B000AF786039607B68EC
:10191000002B04D03B68002B01D0012300E0002302
:1019200003F00103DBB2402210491846104B9847E0
:101930007B68DA687B689B689A4211D07B681A687A
:101940007B6899687B685B680B4013441A783B6836
:101950001A707B689B685A1C7B689A60002301E0C0
:101960006FF0090318460837BD4680BDB45C00001F
:101970006918000080B582B000AF78600B46FB703C
:101980007B68002B14BF01230023DBB251221449D2
:101990001846144B98477B681A687B68D9687B683F
:1019A0005B680B401344FA781A707B68DA687B68CE
:1019B0009B68D21A7B685B689A4206D97B68DA68B2
:1019C0007B685B68D21A7B689A607B68DB685A1C0C
:1019D0007B68DA60002318460837BD4680BD00BF2B
:1019E000B45C00006918000080B582B000AF786078
:1019F0007B68002B14BF01230023DBB2672206495A
:101A00001846064B98477B68DA687B689B68D31A50
:101A100018460837BD4680BDB45C00006918000058
:101A200080B483B000AF03463960FB8013467B71FE
:101A30007B79043B052B65D801A252F823F000BF47
:101A4000E51A0000C71A0000A91A00008B1A00004E
:101A50006B1A0000591A0000FB883A683149A1FB53
:101A60000212920C02FB03F356E0FB883A6852091B
:101A70002D49A1FB0212D20902FB03F3013B2B4AC1
:101A8000A2FB0323DB08013346E0FB883A682849C0
:101A9000A1FB0212520B02FB03F3013B254AA2FBFE
:101AA00003235B09013337E0FB883A682249A1FB35
:101AB0000212920902FB03F3013B1F4AA2FB03231C
:101AC0009B09013328E0FB883A681A49A1FB0212FE
:101AD000520902FB03F3013B154AA2FB03235B0BF4
:101AE000013319E0FB883A681049A1FB0212D208C1
:101AF00002FB03F3013B5B090B4AA2FB0323DB0957
:101B0000013309E0FB883A6802FB03F3013B054A15
:101B1000A2FB03239B0C013318460C37BD465DF82E
:101B2000047B704783DE1B43C55A7C0ACDCCCCCCEA
:101B30005917B7D11F85EB51D34D621080B582B0D4
:101B400000AF0346FB80FB88092204491846044B7A
:101B50009847034618460837BD4680BD000E270744
:101B6000211A000080B483B000AF03463960FB80C7
:101B700013467B717B79043B052B5DD801A252F89B
:101B800023F000BF1B1C0000FD1B0000EB1B00002E
:101B9000D11B0000B71B00009D1B0000FB883A68AA
:101BA0002D49A1FB0212920C02FB03F34FF47A724F
:101BB00002FB03F34AE0FB883A6852092749A1FB7C
:101BC0000212D20902FB03F3642202FB03F33DE09D
:101BD000FB883A682249A1FB0212520B02FB03F276
:101BE00013469B0013445B0030E0FB883A681D49B4
:101BF000A1FB0212920902FB03F327E0FB883A687B
:101C00001949A1FB0212520902FB03F3013B174AD7
:101C1000A2FB0323DB08013318E0FB883A68134971
:101C2000A1FB0212D20802FB03F3013B0E4AA2FB06
:101C300003235B09013309E0FB883A6802FB03F3E5
:101C4000013B084AA2FB03239B09013318460C37CA
:101C5000BD465DF8047B704783DE1B43C55A7C0A92
:101C60005917B7D1D34D62101F85EB51CDCCCCCCD9
:101C700080B582B000AF0346FB80FB88092204498F
:101C80001846044B9847034618460837BD4680BDA2
:101C9000000E2707651B000080B483B000AF78609A
:101CA0007B681B6943F400727B681A6100BF0C37C4
:101CB000BD465DF8047B704780B483B000AF7860A8
:101CC0000B467B807B681B889AB27B881B029BB289
:101CD00003F470639BB213439AB27B681A8000BF0F
:101CE0000C37BD465DF8047B7047000080B500AF3F
:101CF00000210C480C4B98470C4B98470C4B9847CD
:101D00000C4B984704200C4B98470C4B984740F6D7
:101D1000FB70094B98470A480A4B98470A4B98476B
:101D200000BF80BD00400041B91C000085300000AC
:101D30009532000001300000692F0000D53200000C
:101D400000080040991C00004D23000080B483B0BF
:101D500000AF0346FB80B7F90630002B0BDB0949C7
:101D6000B7F906305B09FA8802F01F02012000FA79
:101D700002F241F8232000BF0C37BD465DF8047B1A
:101D8000704700BF00E100E080B483B000AF0346BD
:101D9000FB80B7F90630002B10DB0B49B7F9063092
:101DA0005B09FA8802F01F02012000FA02F22033D8
:101DB00041F82320BFF34F8FBFF36F8F00BF0C3765
:101DC000BD465DF8047B704700E100E080B483B05D
:101DD00000AF0346FB80B7F90630002B0CDB094946
:101DE000B7F906305B09FA8802F01F02012000FAF9
:101DF00002F2603341F8232000BF0C37BD465DF886
:101E0000047B704700E100E080B483B000AF7860ED
:101E10007B681B889BB243F001039AB27B681A80EF
:101E200000BF0C37BD465DF8047B704780B485B0B9
:101E300000AF78607B681B88FB81FB8903F001039E
:101E4000FB81FB89002B14BF01230023DBB2184662
:101E50001437BD465DF8047B704780B483B000AF93
:101E600078607B681B889BB243F002039AB27B6860
:101E70001A8000BF0C37BD465DF8047B704780B404
:101E800083B000AF78607B681B889BB223F00203AD
:101E90009AB27B681A8000BF0C37BD465DF8047BA0
:101EA000704780B483B000AF78600B467B807B685E
:101EB0007A881A8000BF0C37BD465DF8047B7047F6
:101EC00080B483B000AF78600B467B807B685B8812
:101ED0009BB21AB2B7F90230DB431BB213401BB2FC
:101EE0009AB27B685A8000BF0C37BD465DF8047B10
:101EF000704780B485B000AF78600B46FB707B689C
:101F00005B7BFB73FB7B23F00103FB73FA78FB7BAA
:101F10001343FB737B68FA7B5A7300BF1437BD46CB
:101F20005DF8047B704780B483B000AF786039609F
:101F30007B681A693B681A437B681A6100BF0C37DB
:101F4000BD465DF8047B704780B483B000AF786015
:101F500039607B683A685A6100BF0C37BD465DF84E
:101F6000047B704780B485B000AF78600B467B80FF
:101F70007B681B8CFB81FA897B881340FB81FB8982
:101F800018461437BD465DF8047B704780B483B0B3
:101F900000AF786039607B683A685A6300BF0C37DD
:101FA000BD465DF8047B704780B483B000AF7860B5
:101FB00039607B683A689A6300BF0C37BD465DF8AC
:101FC000047B704780B483B000AF78607B681B8867
:101FD0009BB243F001039AB27B681A8000BF0C37B2
:101FE000BD465DF8047B704780B485B000AF786073
:101FF0007B681B88FB81FB899B0A9BB203F0010372
:10200000FB81FB89002B14BF01230023DBB21846A0
:102010001437BD465DF8047B704780B485B000AFCF
:1020200078600B46FB707B681B88FB81FB8923F47F
:102030008063FB81FB789B021AB2B7F90E30134321
:102040001BB2FB817B68FA891A8000BF1437BD463A
:102050005DF8047B704780B485B000AF78607B6822
:102060001B88FB81FB89DB0A9BB203F00103FB8128
:10207000FB89002B14BF01230023DBB21846143761
:10208000BD465DF8047B704780B485B000AF7860D2
:102090007B681B88FB81FB891B0A9BB203F003034F
:1020A000FB81FB8918461437BD465DF8047B7047F9
:1020B00080B483B000AF78600B467B807B687A8801
:1020C0001A8000BF0C37BD465DF8047B704780B4B2
:1020D00083B000AF78600B467B807B687A885A803B
:1020E00000BF0C37BD465DF8047B704780B483B0F9
:1020F00000AF786039607B683A685A6000BF0C377F
:10210000BD465DF8047B704780B483B000AF786053
:102110007B685B6818460C37BD465DF8047B7047EA
:1021200080B483B000AF786039607B683A689A60A9
:1021300000BF0C37BD465DF8047B704780B483B0A8
:1021400000AF78607B689B6818460C37BD465DF829
:10215000047B704780B483B000AF78600B46FB709F
:10216000FB787A681B0113444E331B78DBB203F013
:102170000103002B14BF01230023DBB218460C37E8
:10218000BD465DF8047B704780B483B000AF7860D3
:102190000B46FB70FB787A681B0113444E33012217
:1021A0001A7000BF0C37BD465DF8047B704780B4E1
:1021B00083B000AF78600B46FB70FB787A681B0138
:1021C00013444E331B78DBB25B0803F00103002B92
:1021D00014BF01230023DBB218460C37BD465DF85F
:1021E000047B704780B483B000AF78600B46FB700F
:1021F000FB787A681B0113444E3302221A7000BF29
:102200000C37BD465DF8047B704780B483B000AFE7
:1022100078600B46FB701346BB70BB7883F00103FC
:10222000DBB2002B07D0FB787A681B0113444C33D8
:1022300001221A7006E0FB787A681B0113444D33C3
:1022400001221A7000BF0C37BD465DF8047B704751
:1022500080B483B000AF78600B46FB701346BB7050
:10226000BB7883F00103DBB2002B07D0FB787A68E0
:102270001B0113444C3302221A7006E0FB787A6883
:102280001B0113444D3302221A7000BF0C37BD46A8
:102290005DF8047B704780B483B000AF78600B4674
:1022A000FB70FB78FA787968043212010A441268EC
:1022B00042F00202796804331B010B441A6000BF2C
:1022C0000C37BD465DF8047B704780B485B000AF25
:1022D000F8600B467A60FB72FB7AFA6804331B01E4
:1022E00013447A681A6000BF1437BD465DF8047B5A
:1022F000704780B483B000AF78600B46FB70134624
:10230000BB70FB787A6804331B0113440533BA7839
:102310001A7000BF0C37BD465DF8047B704780B46F
:1023200083B000AF78600B46FB701346BB70FB7840
:102330007A6804331B0113440633BA781A7000BF5D
:102340000C37BD465DF8047B7047000080B582B055
:1023500000AF4248424B98474FF47C513F48414BB5
:1023600098473E48404B984700BF3C483F4B9847F2
:102370000346002BF9D14FF4807138483C4B984705
:10238000012136483B4B9847002134483A4B984747
:102390003A4B194631483A4B98473A4B19462F4821
:1023A000394B98470023FB712BE0FB79374A52F8F1
:1023B0003320FB7919462948354B9847FB79334A36
:1023C000DB0013441A79FB7919462448314B9847AE
:1023D000FB792E4ADB0013445A79FB7919461F48D2
:1023E0002D4B9847FB791B01244A9818FB79274A03
:1023F000DB001344DB881946284B9847FB790133EF
:10240000FB71FB791F2BD0D90023FB711AE0FB79FC
:102410009BB21F339BB21BB21846214B9847FB79E6
:102420009BB21F339BB21BB218461E4B9847FB79D9
:102430009BB21F339BB21BB218461B4B9847FB79CC
:102440000133FB71FB79042BE1D90448174B984702
:10245000002318460837BD4680BD00BF00A00041DC
:102460007F1E0000C11E0000091E00002D1E00007E
:10247000A31E0000F31E0000491F0000F00400200E
:102480008D1F0000F0060020A91F0000D85C00008E
:10249000CB220000F32200001F230000B120000027
:1024A000891D0000CD1D00004D1D00005B1E0000B9
:1024B00080B582B000AF0346FB710B46BB7113467B
:1024C0007B71BB79002B06D17A79FB7919460848D4
:1024D000084B984708E0BB79012B05D17A79FB7945
:1024E00019460348044B984700BF0837BD4680BDD6
:1024F00000A00041512200000B22000080B582B0F4
:1025000000AF03463960FB71FB791B01054A134498
:102510003A6811461846044B984700231846083776
:10252000BD4680BDF00400202121000080B582B0AE
:1025300000AF03463960FB71FB791B01054A134468
:102540003A6811461846044B984700231846083746
:10255000BD4680BDF0040020ED20000080B582B0B3
:1025600000AF03460A46FB711346BB71FB791B01A2
:10257000054A1344BA7911461846044B984700237C
:1025800018460837BD4680BDF00400201B2000001F
:1025900080B584B000AF03463960FB71FB791B0145
:1025A000284A13441846284B9847F860FB791B01CA
:1025B000244A13441846254B98470346FB72FB797F
:1025C0001B01204A13441846214B98470346002B11
:1025D0000BD0FB791B011B4A9818FB7A3A689A408A
:1025E000FB68134419461B4B9847FB791B01154A9E
:1025F00013441846184B9847F860FB791B01114AA1
:1026000013441846154B98470346002B0BD0FB7913
:102610001B010C4A9818FB7A3A689A40FB681344ED
:1026200019460F4B9847FB791B01064A13443A6839
:1026300092B2114618460B4B9847002318461037A4
:10264000BD4680BDF00400203D210000892000002F
:10265000572000002121000009210000E91F00008F
:10266000ED200000CF20000080B582B000AF03460F
:102670000A46FB711346BB71FB791B010C4A1344DC
:1026800018460C4B9847FB7919460B480B4B98475B
:10269000BB79002B07D0FB79012202FA03F319461C
:1026A0000548074B9847002318460837BD4680BDAC
:1026B000F0040020C51F000000A000419722000088
:1026C000271F000080B483B000AF78600B46FB701A
:1026D000FA7813465B0013449B00054A1A447B6852
:1026E0001A60002318460C37BD465DF8047B70471E
:1026F000F008002080B582B000AF1F211B481C4BA2
:1027000098470346FB71FA7913465B0013449B001C
:10271000184A13443B60FB7919461448164B9847F6
:102720000346002B09D0FB7919461048134B9847F4
:102730003B685B683868984713E0FB7919460B489B
:102740000F4B98470346002B0BD0FB7919460748DF
:102750000C4B98470C4B01221A603B681B68386889
:10276000984700BF0837BD4680BD00BF00A00041AC
:10277000651F0000F008002055210000892100009D
:10278000AF210000E52100009062022080B500AF7B
:10279000014B984700BF80BDF526000080B500AF13
:1027A000014B984700BF80BDF526000080B500AF03
:1027B000014B984700BF80BDF526000080B500AFF3
:1027C000014B984700BF80BDF526000080B500AFE3
:1027D000014B984700BF80BDF526000080B483B050
:1027E00000AF0346FB80B7F90630002B0BDB09492D
:1027F000B7F906305B09FA8802F01F02012000FADF
:1028000002F241F8232000BF0C37BD465DF8047B7F
:10281000704700BF00E100E080B483B000AF034622
:10282000FB80B7F90630002B10DB0B49B7F90630F7
:102830005B09FA8802F01F02012000FA02F220333D
:1028400041F82320BFF34F8FBFF36F8F00BF0C37CA
:10285000BD465DF8047B704700E100E080B483B0C2
:1028600000AF0346FB80B7F90630002B0CDB0949AB
:10287000B7F906305B09FA8802F01F02012000FA5E
:1028800002F2603341F8232000BF0C37BD465DF8EB
:10289000047B704700E100E080B483B000AF786053
:1028A000396000BF7B685A683B681340002BF9D140
:1028B00000BF0C37BD465DF8047B704780B483B021
:1028C00000AF786039607B685A683B681340002B22
:1028D00014BF01230023DBB218460C37BD465DF858
:1028E000047B704780B483B000AF78607B685B691D
:1028F00018460C37BD465DF8047B704780B483B042
:1029000000AF786039607B683A685A6100BF0C3765
:10291000BD465DF8047B704780B483B000AF78603B
:1029200039607B683A681A6100BF0C37BD465DF8B4
:10293000047B704780B483B000AF786039607B68F7
:102940003A68DA6000BF0C37BD465DF8047B70471B
:1029500080B582B000AF78607B681B78DBB243F053
:102960000203DAB27B681A7003217868024B984739
:1029700000BF0837BD4680BD9928000080B582B0F1
:1029800000AF78607B681B78DBB223F00203DAB219
:102990007B681A7003217868024B984700BF08379C
:1029A000BD4680BD9928000080B584B000AF786036
:1029B0000B46FB707B681B78FB73FB7B23F01003DB
:1029C000FB73FB781B015AB297F90F3013435BB2CC
:1029D000FB737B68FA7B1A7003217868024B984777
:1029E00000BF1037BD4680BD9928000080B584B077
:1029F00000AF78600B46FB7003217868064B984760
:102A00007B681B78FB73FA7BFB781340FB73FB7BC3
:102A100018461037BD4680BD9928000080B582B0A9
:102A200000AF78600B46FB707B68FA781A70032160
:102A30007868034B984700BF0837BD4680BD00BF8C
:102A40009928000080B483B000AF78600B46FB701B
:102A50007B68FA785A7000BF0C37BD465DF8047B7E
:102A6000704780B483B000AF786039607B683A68A3
:102A70009A6000BF0C37BD465DF8047B704780B498
:102A800083B000AF786039607B683A689A6100BFB4
:102A90000C37BD465DF8047B704780B485B000AF4D
:102AA000F8600B467A60FB72FB7AFA6806339B008B
:102AB00013447A685A6000BF1437BD465DF8047B42
:102AC000704780B483B000AF786039607B683A6843
:102AD0001A6300BF0C37BD465DF8047B704780B4B5
:102AE00083B000AF786039607B683A685A6300BF92
:102AF0000C37BD465DF8047B7047000080B582B09E
:102B000000AF786001213048304B9847034683F08E
:102B10000103DBB2002B11D002212B482C4B98472C
:102B20000346002B06D028482A4B98470221264806
:102B3000294B984701212448284B984701212248D6
:102B4000254B984700212048254B984700211E48D7
:102B5000244B98474FF480511B48234B9847002142
:102B60001948224B98474FF480511748204B9847FB
:102B7000002115481F4B98470022002112481E4B88
:102B800098474FF4803201210F481B4B98470E485D
:102B90001A4B984718201A4B98471820194B9847FA
:102BA0001820194B98471920154B98471920154B99
:102BB00098471920144B9847144A7B6813600023E8
:102BC00018460837BD4680BD00280040BD280000DB
:102BD000ED2900007D290000992800001D2A000031
:102BE000A9290000452A0000632A00007F2A00006E
:102BF000C32A0000DF2A00009B2A000051290000A0
:102C0000192800005D280000DD270000700A002060
:102C100080B584B000AF78600B46FB70FF23FB7378
:102C20000023BB7310E0BB7B1C4ADB0013445A68D3
:102C30007B689A4205D1BB7B184A12F83330FB738C
:102C400005E0BB7B0133BB73BB7B012BEBD9FB7B6B
:102C5000FF2B02D14FF0FF331CE0FB78002B08D094
:102C6000FB7B012202FA03F319460D480D4B9847EE
:102C70000FE0FB7B012202FA03F3194608480A4BD6
:102C80009847FB7B012202FA03F319460448074BDD
:102C90009847002318461037BD4680BDD85D000018
:102CA000002800401929000035290000FD280000F7
:102CB00080B584B000AF4148414B984703463B6024
:102CC0004FF0FF33BB603B6819463C483D4B98478B
:102CD0003D4B1B68002B14BF01230023DBB2EC2209
:102CE0003A4918463A4B984760E03B681846394BDA
:102CF00098470346DBB2013BDBB2FB7347E000239E
:102D0000FB710223BB7124E0BA79FB7913445B1099
:102D10007B717B79304A12F833301A4697F90F30BD
:102D20009A4206D17B792C4ADB0013445B68BB6076
:102D300013E07B79284A12F833301A4697F90F309E
:102D40009A4203DA7B790133FB7102E07B79013B24
:102D5000BB71BA79FB799A42D6D2BB68B3F1FF3F17
:102D600003D0194B1B68B868984797F90F300122B8
:102D700002FA03F3DA433B6813403B603B681846B2
:102D8000144B98470346DBB2013BDBB2FB7397F968
:102D90000F30B3F1FF3FB2D10848094B98470346C3
:102DA0003B603B6819460548064B98473B68002B3B
:102DB0009BD100BF1037BD4680BD00BF002800403A
:102DC000E5280000FD280000700A0020E85D0000F2
:102DD00069180000E9590000D85D000080B500AF17
:102DE000014B984700BF80BDB12C000080B500AFFB
:102DF000014B984700BF80BDB12C000080B485B066
:102E000000AFF8600B467A60FB72FA7AFB684832D2
:102E1000796843F8221000BF1437BD465DF8047B83
:102E2000704780B483B000AF78600B46FB701346E8
:102E3000BB70FB787A680433DB001344BA785A71AC
:102E4000FB78BA78D243D1B27A680433DB001344FA
:102E50000A461A7100BF0C37BD465DF8047B704707
:102E600080B485B000AFF8600B467A60FB72FA7AE6
:102E7000FB680432796843F8321000BF1437BD464E
:102E80005DF8047B7047000080B582B000AF00237E
:102E9000FB710BE0FB79184AD35C1A46FB791946A3
:102EA0001648174B9847FB790133FB71FB79422B8E
:102EB000F0D90023FB7116E0FB79124A32F8133087
:102EC0001A46FB7919460D480F4B9847FB790F4A74
:102ED00052F82330DAB2FB79194608480C4B984770
:102EE000FB790133FB71FB791F2BE5D900231846D1
:102EF0000837BD4680BD00BF005E000000E0004115
:102F0000FD2D0000445E0000612E0000845E000084
:102F1000232E000080B483B000AF7860396000BF1A
:102F20007B685A683B681340002BF9D100BF0C370F
:102F3000BD465DF8047B704780B584B000AFF86093
:102F40000B467A60FB72FA7AFB680832796843F8BC
:102F5000221043F6FD71F868024B984700BF103706
:102F6000BD4680BD152F000080B582B000AF7860EF
:102F70007B6803F00103002B04D0134A002113489F
:102F8000134B98477B6803F00203002B04D0114ACF
:102F900001210E480E4B98477B6803F00403002B79
:102FA00004D00D4A02210948094B98477B6803F079
:102FB0000803002B04D0094A03210448044B984716
:102FC00000BF0837BD4680BD07210100001C00403E
:102FD000392F00000821020001210C000821010006
:102FE00080B483B000AF78600B46FB707B68FA78E2
:102FF0005A7100BF0C37BD465DF8047B7047000076
:1030000080B582B000AF054B7B6001217868044B2E
:10301000984700BF0837BD4680BD00BF000800408C
:10302000E12F000080B483B000AF78600B46FB70E6
:103030007B68FA781A7400BF0C37BD465DF8047BD4
:10304000704780B485B000AF78607B68DB69FB6057
:10305000FB681B0A03F03F03FB60FB68184614374C
:10306000BD465DF8047B704780B483B000AF7860E4
:1030700039607B683A68DA6100BF0C37BD465DF89D
:10308000047B704780B582B000AF0C4B7B6000239F
:103090007B8078680A4B984703467B807B881B02BD
:1030A00003F47C5319467868064B984701217868E9
:1030B000054B984700BF0837BD4680BD001400404F
:1030C00043300000693000002530000080B485B036
:1030D00000AFF8600B467A60FB72FA7AFB68203228
:1030E000796843F8221000BF1437BD465DF8047BB1
:1030F000704780B485B000AFF8600B467A60FB7211
:1031000000BFFA7AF96813469B0013449B000B44F6
:103110003C331A687B681340002BF2D100BF143790
:10312000BD465DF8047B704780B483B000AF786023
:103130000B46FB70FA78796813469B0013449B009A
:103140000B4440331B6803F00103002B14BF012321
:103150000023DBB218460C37BD465DF8047B704790
:1031600080B483B000AF78600B46FB70FA78796862
:1031700013469B0013449B000B4440331B685B08C1
:1031800003F00103002B14BF01230023DBB2184618
:103190000C37BD465DF8047B7047000080B582B0F7
:1031A00000AF78600B46FB701346BB70FA78796805
:1031B00013469B0013449B000B443033BA781A70BB
:1031C000FB78022219467868024B984700BF0837FF
:1031D000BD4680BDF330000080B584B000AFF8601C
:1031E0000B467A60FB72FA7AF96813469B00134427
:1031F0009B000B4434337A681A60FB7A0622194626
:10320000F868034B984700BF1037BD4680BD00BF2C
:10321000F330000080B485B000AFF8600B467A60F0
:10322000FB72FA7AF96813469B0013449B000B4427
:1032300038337A681A6000BF1437BD465DF8047BE6
:10324000704780B483B000AF78607B681B695B080F
:1032500003F00103002B14BF01230023DBB2184647
:103260000C37BD465DF8047B704780B485B000AF75
:10327000F8600B467A60FB72FB7AFA6804339B00B5
:1032800013447A685A6000BF1437BD465DF8047B6A
:103290007047000080B582B000AF0A4B7B600A4ADD
:1032A00001217868094B984700BF7868084B984718
:1032B000034683F00103DBB2002BF6D100BF0837D1
:1032C000BD4680BD00100040462600036B32000062
:1032D0004332000080B582B000AF2D4B7B604222AC
:1032E00001212C482C4B98477722002178682B4BE2
:1032F00098474FF4843200217868294B984702227E
:1033000000217868274B9847422202212148224B0E
:1033100098472F2201217868204B98474FF400628C
:10332000012178681E4B98470222012178681D4BC5
:10333000984700BF002178681B4B9847034683F0ED
:103340000103DBB2002B09D000217868174B9847A6
:10335000034683F00103DBB2002BEBD100BF012158
:103360007868114B9847034683F00103DBB2002BCA
:1033700009D0012178680D4B9847034683F001037B
:10338000DBB2002BEBD100BF0837BD4680BD00BFCC
:1033900000100040001C0040CD300000D93100007A
:1033A000153200009D31000029310000613100001C
:1033B00080B483B000AF78607B6801229A6000BF60
:1033C0000C37BD465DF8047B704780B483B000AF16
:1033D00078607B681B6918460C37BD465DF8047B36
:1033E000704780B483B000AF786039607B681A683A
:1033F0003B681A437B681A6000BF0C37BD465DF816
:10340000047B704780B483B000AF786039607B681C
:103410003A681A6000BF0C37BD465DF8047B704700
:1034200080B584B000AF78607B689B68FB60FB6808
:103430001B680021F868984700BF1037BD4680BD63
:1034400080B584B000AF786039600023FB607B6892
:103450003A68DA600D4BFB607B68DB68F9681846F8
:103460000B4B98470B4A7B68136000210A480B4BB3
:103470009847094B1B687A689A60074B1B68084A93
:103480001A6000BF1037BD4680BD00BF200000C0DD
:1034900005340000740A002034630220C5260000B1
:1034A0002134000080B582B000AF78607B68DB68B3
:1034B00001211846024B984700BF0837BD4680BD22
:1034C000E333000080B582B000AF78607B68DB68D2
:1034D00000211846024B984700BF0837BD4680BD03
:1034E0000534000080B584B000AFF860B9607A6040
:1034F000BB68012B1DD80122002100200F4B9847EB
:10350000FB68DB681433194600200D4B9847796837
:1035100000200C4B9847002100200B4B98474FF49C
:1035200016410020094B984700210020084B98477E
:1035300000E000BF1037BD4680BD00BFB1240000D1
:103540002D250000FD2400005D25000091250000D0
:103550006926000080B582B000AF114B1B68DB68A4
:103560007B6078680F4B984703463B6078680E4B4A
:1035700098473B6803F00103002B0DD0084B1B68F4
:103580001B68002B09D0064B1B681B68044A126895
:1035900000211046984700E000BF0837BD4680BDB7
:1035A000740A0020CB330000B133000080B483B034
:1035B00000AF78607B689B78DBB218460C37BD465D
:1035C0005DF8047B704780B483B000AF78607B689F
:1035D0005B6818460C37BD465DF8047B70470000F9
:1035E00090B583B000AF174B7B601748174B9847D7
:1035F00003463B603B6803F00203002B0CD07B6862
:103600001B68002B08D07B681C680F48104B98473C
:1036100003461846A04712E03B6803F00103002B65
:103620000CD07B685B68002B08D07B685C68064820
:10363000074B984703461846A04700E000BF0C37E9
:10364000BD4690BD3863022000000241AD35000048
:10365000C735000080B483B000AF0346FB80B7F9E4
:103660000630002B0BDB0949B7F906305B09FA88F5
:1036700002F01F02012000FA02F241F8232000BFED
:103680000C37BD465DF8047B704700BF00E100E0E9
:1036900080B483B000AF0346FB80B7F90630002B3F
:1036A00010DB0B49B7F906305B09FA8802F01F02FC
:1036B000012000FA02F2203341F82320BFF34F8F9C
:1036C000BFF36F8F00BF0C37BD465DF8047B7047BA
:1036D00000E100E080B483B000AF0346FB80B7F99F
:1036E0000630002B0CDB0949B7F906305B09FA8874
:1036F00002F01F02012000FA02F2603341F8232099
:1037000000BF0C37BD465DF8047B704700E100E068
:1037100080B483B000AF7860396000BF7B68DA693D
:103720003B681340002BF9D100BF0C37BD465DF854
:10373000047B704780B483B000AF786039607B68E9
:10374000DA693B681340002B14BF01230023DBB26E
:1037500018460C37BD465DF8047B704780B483B0D3
:1037600000AF7860396000BF7B68DA693B6813405E
:10377000002BF9D100BF0C37BD465DF8047B7047C4
:1037800080B483B000AF786039607B68DA693B68E9
:103790001340002B14BF01230023DBB218460C3763
:1037A000BD465DF8047B704780B483B000AF78609D
:1037B0007B6801221A7600BF0C37BD465DF8047B9A
:1037C000704780B483B000AF78607B6802221A76BD
:1037D00000BF0C37BD465DF8047B704780B483B0F2
:1037E00000AF78607B681B7EDBB218460C37BD46A5
:1037F0005DF8047B704780B483B000AF78607B686D
:103800001B7EDBB203F00103002B14BF0123002356
:10381000DBB218460C37BD465DF8047B704780B4B8
:1038200083B000AF78607B681B7EDBB25B0803F07F
:103830000103002B14BF01230023DBB218460C3711
:10384000BD465DF8047B704780B483B000AF7860FC
:103850007B681B7EDBB29B0803F00103002B14BFC7
:1038600001230023DBB218460C37BD465DF8047B0C
:10387000704780B483B000AF78607B681B7EDBB29A
:10388000DB0903F00103002B14BF01230023DBB28B
:1038900018460C37BD465DF8047B704780B483B092
:1038A00000AF78607B6880221A7600BF0C37BD4677
:1038B0005DF8047B704780B483B000AF78607B68AC
:1038C00001229A7500BF0C37BD465DF8047B704736
:1038D00080B483B000AF78607B689B7DDBB203F07F
:1038E0000103002B14BF01230023DBB218460C3761
:1038F000BD465DF8047B704780B483B000AF78604C
:103900007B6801221A7500BF0C37BD465DF8047B49
:10391000704780B483B000AF78607B6802229A75EC
:1039200000BF0C37BD465DF8047B704780B483B0A0
:1039300000AF78607B689B7DDBB25B0803F001031E
:10394000002B14BF01230023DBB218460C37BD4601
:103950005DF8047B704780B483B000AF78607B680B
:1039600002221A7500BF0C37BD465DF8047B704714
:1039700080B582B000AF78607B681B6843F00202BC
:103980007B681A6003217868024B984700BF0837AC
:10399000BD4680BD1137000080B582B000AF7860B1
:1039A0007B681B6823F002027B681A600321786839
:1039B000024B984700BF0837BD4680BD1137000055
:1039C00080B485B000AF78607B681B68FB60FB68E3
:1039D000DB0E03F00103FB60FB68002B14BF012327
:1039E0000023DBB218461437BD465DF8047B7047F0
:1039F00080B584B000AF7860396003217868074BE8
:103A000098477B681B68FB60FA683B681340FB6063
:103A1000FB6818461037BD4680BD00BF1137000057
:103A200080B582B000AF786039607B683A681A6010
:103A300003217868024B984700BF0837BD4680BD18
:103A40001137000080B582B000AF78607B681B68DA
:103A500043F002027B681A6003217868024B9847A2
:103A600000BF0837BD4680BD5D37000080B582B01D
:103A700000AF78607B681B6823F002027B681A60E5
:103A800003217868024B984700BF0837BD4680BDC8
:103A90005D37000080B584B000AF786039600321E5
:103AA0007868074B98477B681B68FB60FA683B683F
:103AB0001340FB60FB6818461037BD4680BD00BF51
:103AC0005D37000080B582B000AF786039607B68F8
:103AD0003A681A6003217868024B984700BF08379C
:103AE000BD4680BD5D37000080B582B000AF786014
:103AF0007B685B6843F480727B685A600421786855
:103B0000024B984700BF0837BD4680BD1137000003
:103B100080B582B000AF78607B685B6823F4807208
:103B20007B685A6004217868024B984700BF0837C9
:103B3000BD4680BD1137000080B582B000AF78600F
:103B40007B685B6843F480227B685A600421786854
:103B5000024B984700BF0837BD4680BD11370000B3
:103B600080B582B000AF78607B685B6823F4802208
:103B70007B685A6004217868024B984700BF083779
:103B8000BD4680BD1137000080B582B000AF7860BF
:103B900039607B685A683B681B0403F440331A435E
:103BA0007B685A6004217868024B984700BF083749
:103BB000BD4680BD1137000080B582B000AF78608F
:103BC00039607B683A685A6004217868024B9847EC
:103BD00000BF0837BD4680BD1137000080B582B0F8
:103BE00000AF786039607B683A685A601F21786856
:103BF000024B984700BF0837BD4680BD5D370000C7
:103C000080B483B000AF786039607B683A689A60AE
:103C100000BF0C37BD465DF8047B704780B483B0AD
:103C200000AF786039607B683A68DA6000BF0C37B3
:103C3000BD465DF8047B704780B483B000AF786008
:103C40000B467B807B687A889A8100BF0C37BD4623
:103C50005DF8047B704780B483B000AF78600B469A
:103C6000FB707B68FA789A7300BF0C37BD465DF82D
:103C7000047B704780B584B000AF78600B46FB7062
:103C80007B685B6AFB60FB6823F48043FB60FB7826
:103C90009B031A46FB681343FB607B68FA685A6211
:103CA00004217868024B984700BF1037BD4680BD9D
:103CB0001137000080B582B000AF786039607B6852
:103CC0003A685A6204217868024B984700BF083767
:103CD000BD4680BD1137000080B582B000AF78606E
:103CE00004217868034B98477B685B6A184608375D
:103CF000BD4680BD1137000080B582B000AF78604E
:103D000039607B683A689A6204217868024B984768
:103D100000BF0837BD4680BD1137000080B582B0B6
:103D200000AF786004217868034B98477B689B6AF2
:103D300018460837BD4680BD1137000080B483B0F7
:103D400000AF786039607B683A689A6200BF0C37D0
:103D5000BD465DF8047B704780B483B000AF7860E7
:103D60007B689B6A18460C37BD465DF8047B70473C
:103D700080B483B000AF78600B46FB707B68FA7844
:103D800083F8302000BF0C37BD465DF8047B7047D8
:103D900080B483B000AF78600B467B807B687A8804
:103DA0005A8300BF0C37BD465DF8047B704780B472
:103DB00083B000AF78607B685B8B9BB218460C3792
:103DC000BD465DF8047B704780B582B000AF786077
:103DD00004217868064B98477B685B8B9BB21B0974
:103DE0009BB203F003039BB218460837BD4680BD63
:103DF0001137000080B582B000AF78600421786888
:103E0000044B98477B685B8B9BB218460837BD46CE
:103E100080BD00BF1137000080B582B000AF786070
:103E20000B467B807B687A885A8304217868034B31
:103E3000984700BF0837BD4680BD00BF113700005E
:103E400080B586B000AF786039607B68002B14BF06
:103E500001230023DBB2CB221C4918461C4B984798
:103E600038681C4B9847F860FB68002B01D0FB6852
:103E700027E07B683A689A6179683868164B9847FA
:103E80003868164B98470346FB7500233B6114E0E6
:103E9000FB7D1BB21846124B9847FB7D1BB21846A0
:103EA000104B9847FB7D1BB218460F4B9847FB7D84
:103EB0000133FB753B6901333B613B69032BE7D958
:103EC000002318461837BD4680BD00BF045F0000C0
:103ED000691800008141000055410000F5450000CF
:103EE00091360000D53600005536000080B582B00E
:103EF00000AF78607B689B691846034B984700BF0A
:103F00000837BD4680BD00BF453A000080B582B08D
:103F100000AF78600B46FB707B689B69FA781146AE
:103F20001846034B984700BF0837BD4680BD00BF09
:103F30003D3D000080B582B000AF78607B689B6932
:103F40001846034B9847034618460837BD4680BDC0
:103F5000F737000080B582B000AF78607B689B695E
:103F60001846034B984700BF0837BD4680BD00BFC9
:103F7000B738000080B582B000AF78607B689B697D
:103F80001846034B984700BF0837BD4680BD00BFA9
:103F900013390000B0B48DB000AF7860134B07F157
:103FA0000C041D460FCD0FC495E80F0084E80F00E8
:103FB0000023FB6210E0FB6A9B0007F13002134410
:103FC00053F8243C1A467B689A4202D1FB6ADBB262
:103FD00006E0FB6A0133FB62FB6A072BEBD9002387
:103FE00018463437BD46B0BC704700BF205F0000A4
:103FF00090B585B000AF78607B689B69FB60F8681E
:104000002F4B98470346002B0DD0F8682D4B98474F
:104010000346002B07D0F8682B4B98477B681B683A
:104020007868984749E0F868284B98470346002B82
:104030000DD0F868264B98470346002B07D0F86848
:10404000244B98477B689B687868984735E0F86808
:10405000214B98470346002B17D0F8681F4B984711
:10406000034603F03703002B04D0FF21F8681C4BF4
:10407000984722E07B685C68F8681A4B98470346CB
:10408000DBB219467868A04717E0F868164B9847E6
:104090000346002B11D0F868144B98477B68DB6807
:1040A00078689847F8680D4B98470346BB60BB6833
:1040B0009BB21946F8680A4B98471437BD4690BD25
:1040C000F7370000D1380000F93800001F38000031
:1040D0002D3900005739000049380000AF3D00007D
:1040E000913D0000593D0000733800009D380000EC
:1040F00080B584B000AF78607868124B984703466B
:10410000BB730023FB730FE0FA7B0F4913465B0080
:104110001344DB000B441B78BA7B9A4201D1FB7B32
:104120000CE0FB7B0133FB73FB7B002BECD040F2FC
:104130006B2206490020064B98470023184610378B
:10414000BD4680BD953F000000000020045F0000D8
:104150006918000080B483B000AF786039607B6874
:10416000054A934202D1054A3B68136000BF0C37F1
:10417000BD465DF8047B704700340040780A00209B
:1041800080B584B000AF78607868614B984703468B
:10419000FB73012178685F4B9847034683F0010366
:1041A000DBB2002B20D0FA7B5B4913465B00134443
:1041B000DB000B4404331B6803F01C03BB600221CB
:1041C0007868564B98470346002B06D07868544BC6
:1041D000984702217868534B9847BB6843F0010326
:1041E00019467868504B9847012178684D4B98479D
:1041F000FA7B494913465B001344DB000B4404334C
:104200001B6819467868484B9847FA7B4249134621
:104210005B001344DB000B4408331B6819467868C5
:10422000424B9847FA7B3C4913465B001344DB0042
:104230000B440C331B68194678683D4B9847FA7B52
:10424000354913465B001344DB000B4404331B6801
:1042500003F40053002B0CD1FA7B2F4913465B006B
:104260001344DB000B4404331B6803F4C043002BEE
:1042700022D0FA7B284913465B001344DB000B4431
:1042800010331B88C3F30C0399B27A68938961F3E6
:104290000C039381FA7B204913465B001344DB0037
:1042A0000B4412331B7803F00703D9B27A68938961
:1042B00061F34F3393810CE0FA7B174913465B009F
:1042C0001344DB000B4410331B8819467868194BE4
:1042D0009847FA7B104913465B001344DB000B44FC
:1042E00013331B7819467868134B9847FA7B0A49B1
:1042F00013465B001344DB000B4414331B78194650
:1043000078680E4B9847002318461037BD4680BD8D
:10431000F14000008137000000000020953A0000C5
:104320006D3A00005D370000C53A0000DD3B00003B
:10433000013C0000393C0000573C0000713D00008A
:1043400080B584B000AF78607868134B9847034617
:10435000BB730023FB7310E0FA7B104913465B002C
:104360001344DB000B441B78BA7B9A4202D197F9C5
:104370000F300DE0FB7B0133FB73FB7B002BEBD09D
:1043800040F2CE3206490020064B98474FF0FF33EB
:1043900018461037BD4680BD953F0000180000202C
:1043A000045F00006918000080B582B000AF78603B
:1043B00003217868024B984700BF0837BD4680BD8F
:1043C000893B000090B587B000AFF860B9607A60B3
:1043D000F8687D4B984703467B61F8687B4B9847AC
:1043E00003467B82BB6803F00103002B00F095803D
:1043F0007B8A03F00203002B1DD0F868744B9847AA
:104400007B685B889BB243F480539AB27B685A8086
:104410007B685B889BB223F480739AB27B685A8076
:104420007B8A03F00103002B02D06FF00403C6E087
:104430006FF00303C3E07B8A03F00403002B1FD05B
:104440007B685B68002B07DD7B685B889BB243F46D
:1044500080539AB27B685A807B685B889BB21BB2A0
:10446000002B02DAF8685B4B98477B685B889BB24D
:1044700023F480739AB27B685A806FF001039EE048
:104480007B685B889BB203F48063002B1CD07B6845
:104490001B881B125B0003F00604F8684E4B98471C
:1044A000034603F48043234343F0F1031946F868BD
:1044B0004A4B98477B685B889BB223F480639AB22F
:1044C0007B685A8000237AE07B685B68002B11D1FF
:1044D0007B685B889BB21BB2002B02DAF8683D4B0D
:1044E00098477B685B889BB223F480739AB27B68A1
:1044F0005A8010E07B689B681B781946F868384B37
:1045000098477B689B685A1C7B689A607B685B68ED
:104510005A1E7B685A60002351E0BB6803F0020317
:10452000002B4BD07B685B68002B41D07B8A03F06B
:104530000403002B3CD17B685B685A1E7B685A6081
:104540007B685B68002B02D17B69002B06D07B68FF
:104550005B68012B05D17B69002B02D0F868214BE9
:1045600098477B685B68002B13D17B685B889BB2A4
:104570001BB2002B05DAF8681B4B9847F868154BFF
:1045800098477B685B889BB223F480739AB27B6800
:104590005A807B689C68621C7B689A60F868134B41
:1045A00098470346DBB22370F868114B984705E043
:1045B000F8680F4B98476FF0010300E0002318469E
:1045C0001C37BD4690BD00BFC1390000F53D00005D
:1045D000A9370000A9430000D93C0000B53C000009
:1045E000F93C0000393B0000113B00001D3D00007C
:1045F000C337000080B582B000AF78607868054BA3
:10460000984703469B00DBB22E33DBB218460837CF
:10461000BD4680BD953F000080B582B000AF786098
:1046200039607B68002B14BF01230023DBB24FF4F9
:10463000A86208491846084B98477B683A681A618F
:104640007B6839681846054B984703461846083773
:10465000BD4680BD045F000069180000D549000018
:1046600080B582B000AF78607B68002B14BF012357
:104670000023DBB240F25D5206491846064B9847CC
:104680007B681B691846054B984703461846083750
:10469000BD4680BD045F0000691800004949000064
:1046A00080B584B000AF786039604FF6FF73FB606F
:1046B0007B681B69BB60B8680F4B984703461A4676
:1046C0003B681A60FB685A1EFA60002B02D16FF03B
:1046D00004030CE03B681B6803F00103002B05D1C9
:1046E0003B681B6803F00203002BE4D0002318464C
:1046F0001037BD4680BD00BFDD37000090B587B0E4
:1047000000AF78607B681B697B617B683B6178697F
:10471000394B98470346FB607B68002B14BF01238D
:104720000023DBB240F2CD5234491846344B98474F
:104730003B695B68012B06D1FB68002B03D07869CD
:10474000304B984702E078692F4B98473B691B88AC
:1047500003F48063002B22D03B695B889BB203F09B
:104760000103002B07D03B695B889BB243F4806355
:104770009AB23B695A803B691B885B0040F2FE7429
:104780001C407869214B9847034603F48043234338
:1047900043F40043194678691D4B98471AE03B697A
:1047A0001B885B00DBB23A69528892B202F00102C8
:1047B000002A14BF01220022D2B213431C4678699A
:1047C000124B9847034603F4804323431946786904
:1047D0000F4B984707F10803194678680D4B984727
:1047E000BB683A69194678690B4B984703461846E7
:1047F0001C37BD4690BD00BFC1390000045F0000FA
:1048000069180000393B0000613B0000D93C000002
:10481000B53C0000A1460000C543000080B586B04D
:1048200000AF786039607B681B693B617B68002B57
:1048300014BF01230023DBB24FF4BF623B4918468B
:104840003B4B98477B681B69002B14BF0123002357
:10485000DBB240F2F95235491846354B98473B6870
:10486000002B14BF01230023DBB240F2FA522F4980
:1048700018462F4B98477B685B889BB203F4807384
:10488000002B02D06FF005034CE03B685B889BB2C5
:1048900043F480739AB23B685A807B683A6807CACF
:1048A00083E807003869234B98477868224B98477C
:1048B00078617B69002B2DD07B685B889BB223F4E9
:1048C00080739AB27B685A807B692BE007F10C03F6
:1048D00019467868194B984778617B69002B12D08C
:1048E0003B685B889BB21BB2002B02DA3869144B21
:1048F00098477B685B889BB223F480739AB27B688D
:104900005A807B690EE0FB687A68194638690D4B5E
:10491000984778617B685B889BB203F48073002BB7
:10492000D4D17B6918461837BD4680BD045F0000AE
:1049300069180000E93A0000FD460000A1460000A9
:10494000A9430000C543000080B584B000AF786083
:104950004FF6FF73FB600423BB607B68002B14BF22
:1049600001230023DBB240F22D6215491846154B96
:1049700098477868144B984716E0FB68013BFB604A
:10498000FB68002B10DCBB68013BBB60BB68002BE5
:1049900007D04FF6FF73FB60102178680B4B9847E8
:1049A00002E06FF0050306E07868094B984703467C
:1049B000012BE2D1002318461037BD4680BD00BF51
:1049C000045F00006918000071390000193E000002
:1049D000C93D000080B584B000AF786039603868A8
:1049E000424B98470346FB7301213868404B984778
:1049F000034683F00103DBB2002B20D0FA7B3D4954
:104A000013465B001344DB000B4404331B6803F0C4
:104A10001C03BB6002213868374B98470346002BC4
:104A200006D03868354B984702213868344B984790
:104A3000BB6843F0010319463868324B984701219F
:104A400038682F4B9847FA7B2A4913465B0013447A
:104A5000DB000B4404331B6819463868294B984720
:104A6000FA7B244913465B001344DB000B440833F4
:104A70001B6819463868244B9847FA7B1D49134632
:104A80005B001344DB000B440C331B681946386889
:104A90001E4B9847FA7B174913465B001344DB0013
:104AA0000B4404331B681B0E9BB203F003039AB242
:104AB0007B689A817B689B89012B8CBF0123002333
:104AC000DBB219463868124B9847FA7B09491346FE
:104AD0005B001344DB000B4412331A887B68DA81D5
:104AE000002318461037BD4680BD00BF414300007B
:104AF0003537000018000020F13900009939000016
:104B000011370000213A0000B93B00001D3C0000B5
:104B1000753C000080B500AF034B1B681846034B83
:104B2000984700BF80BD00BF780A0020F13F000019
:104B300080B500AF034B1B681846034B984700BF76
:104B400080BD00BF780A0020F13F000080B500AFB3
:104B5000034B1B681846034B984700BF80BD00BF3E
:104B6000780A0020F13F000080B500AF034B1B68BE
:104B70001846034B984700BF80BD00BF780A00204D
:104B8000F13F000080B483B000AF7860064B6FF057
:104B90007F425A60044B05221A6000BF0C37BD46A5
:104BA0005DF8047B704700BF10E000E080B582B084
:104BB00000AF78607868034B984700BF0837BD4660
:104BC00080BD00BF854B000080B485B000AF786029
:104BD00039603B681B0EFB733B68BB6013E0164BF0
:104BE0006FF07F425A60144B6FF07F429A6000BFB3
:104BF000114B1B6803F48033002BF9D0BB6803F121
:104C00007F430133BB60FB7B5A1EFA73002BE6D156
:104C1000094ABB685360084ABB68936000BF064BF3
:104C20001B6803F48033002BF9D000BF1437BD4656
:104C30005DF8047B704700BF10E000E080B483B0F3
:104C400000AF0346FB80B7F90630002B0BDB0949A8
:104C5000B7F906305B09FA8802F01F02012000FA5A
:104C600002F241F8232000BF0C37BD465DF8047BFB
:104C7000704700BF00E100E080B483B000AF03469E
:104C8000FB80B7F90630002B10DB0B49B7F9063073
:104C90005B09FA8802F01F02012000FA02F22033B9
:104CA00041F82320BFF34F8FBFF36F8F00BF0C3746
:104CB000BD465DF8047B704700E100E080B483B03E
:104CC00000AF0346FB80B7F90630002B0CDB094927
:104CD000B7F906305B09FA8802F01F02012000FADA
:104CE00002F2603341F8232000BF0C37BD465DF867
:104CF000047B704700E100E080B483B000AF7860CF
:104D0000396000BF7B689A683B681340002BF9D17B
:104D100000BF0C37BD465DF8047B704780B483B09C
:104D200000AF786039607B689A683B681340002B5D
:104D300014BF01230023DBB218460C37BD465DF8D3
:104D4000047B704780B483B000AF78607B68DB6A17
:104D500003F00103002B14BF01230023DBB218462C
:104D60000C37BD465DF8047B704780B483B000AF5C
:104D700078607B680122DA6200BF0C37BD465DF8BF
:104D8000047B704780B483B000AF78607B680822F2
:104D9000DA6200BF0C37BD465DF8047B704780B413
:104DA00083B000AF78607B6802221A7100BF0C37B5
:104DB000BD465DF8047B704780B483B000AF786077
:104DC0000B46FB707B68FA785A7100BF0C37BD4602
:104DD0005DF8047B704780B483B000AF78607B6877
:104DE0009B6ADB0803F00103002B14BF012300239F
:104DF000DBB218460C37BD465DF8047B70470000F7
:104E000080B582B000AF78607B681B6843F0020217
:104E10007B681A6003217868024B984700BF083707
:104E2000BD4680BDF94C000080B584B000AF78600D
:104E300003217868094B98477B681B68FB60FB6817
:104E40005B0803F00103FB60FB68002B14BF012328
:104E50000023DBB218461037BD4680BDF94C000078
:104E600080B582B000AF78607B681B6823F00202D7
:104E70007B681A6003217868024B984700BF0837A7
:104E8000BD4680BDF94C000080B584B000AF7860AD
:104E9000396003217868074B98477B681B68FB6083
:104EA000FA683B681340FB60FB6818461037BD4644
:104EB00080BD00BFF94C000080B582B000AF7860C3
:104EC00039607B683A681A6003217868024B98471A
:104ED00000BF0837BD4680BDF94C000080B483B0E8
:104EE00000AF78600B46FB707B68FA789A7700BF5A
:104EF0000C37BD465DF8047B704780B483B000AFCB
:104F0000786039607B683A681A6200BF0C37BD462A
:104F10005DF8047B7047000080B582B000AF786018
:104F200039607B683A68DA6343F6FF717868034B4F
:104F3000984700BF0837BD4680BD00BFF94C000050
:104F400080B582B000AF786039607B683A681A64D7
:104F500080217868024B984700BF0837BD4680BD66
:104F6000F94C000080B584B000AFF8600B467A6061
:104F7000FB72FB7AFA6810339B0013447A685A601C
:104F80004FF47C51F868034B984700BF1037BD467B
:104F900080BD00BFF94C000080B483B000AF7860E2
:104FA00039607B683A68DA6600BF0C37BD465DF849
:104FB000047B704780B485B000AFF8600B467A6020
:104FC000FB72FA7AFB681C32796843F8221000BF42
:104FD0001437BD465DF8047B7047000080B483B091
:104FE00000AF786039607B68054A934202D1054A78
:104FF0003B68136000BF0C37BD465DF8047B70470B
:10500000006001418C0A002080B584B000AF786058
:10501000396038686D4B9847F860FB68002B02D107
:105020006FF00903CDE03868694B9847B860BB68FA
:10503000002B02D16FF00903C3E07B683A681A6164
:1050400001213868634B9847034683F00103DBB2C4
:10505000002B11D0022138685F4B98470346002B84
:1050600006D038685D4B9847022138685C4B9847FA
:10507000012138685B4B984701213868584B9847A5
:10508000FB689B6819463868564B9847FB681B7B42
:1050900019463868544B9847FB685B7B194638685B
:1050A000524B9847FB681B6919463868504B984724
:1050B000BB681B69194638684E4B9847BB689B68AC
:1050C000194638684C4B9847BB689A68FB68DA62A7
:1050D000BB689B79052B57D801A252F823F000BF7B
:1050E000F950000011510000295100004151000009
:1050F0005951000071510000BB68DA68FB685A61C1
:10510000FB685B691A46002138683C4B98473EE0D3
:10511000BB68DA68FB689A61FB689B691A460121E3
:105120003868364B984732E0BB68DA68FB68DA616A
:10513000FB68DB691A4602213868304B984726E045
:10514000BB68DA68FB681A62FB681B6A1A460321AF
:1051500038682A4B98471AE0BB68DA68FB685A62DD
:10516000FB685B6A1A4604213868244B98470EE0B6
:10517000BB68DA68FB689A62FB689B6A1A4605217D
:1051800038681E4B984702E06FF01B0319E038683F
:105190001B4B9847796838681A4B9847BB68B3F936
:1051A00004301846184B9847BB68B3F904301846CA
:1051B000164B9847BB68B3F904301846144B984710
:1051C000002318461037BD4680BD00BF395300008C
:1051D0008D5300001D4D0000894E0000614E0000FF
:1051E000F94C0000B94E0000B94D0000DD4E000042
:1051F000FB4E0000194F0000414F0000654F0000BA
:105200009F4D0000DD4F0000794C0000BD4C0000B8
:105210003D4C000080B582B000AF78607B681B69B0
:105220001846034B984700BF0837BD4680BD00BFF6
:10523000014E000080B586B000AFF860B9607A60BA
:10524000FB681B697B6178690A4B984738613B6949
:10525000002B0AD0B9687869074B98473B699B795E
:105260007A6819467869054B984700BF1837BD46DC
:1052700080BD00BF8D530000994F0000B54F000066
:1052800080B582B000AF78607B681B691846034B1D
:105290009847034618460837BD4680BD294E000092
:1052A00080B400AF00231846BD465DF8047B70470C
:1052B00080B584B000AF78607B681B69FB60F868DC
:1052C000124B98470346002B0AD0F868104B9847BA
:1052D0007B681B68002B03D07B681B687868984745
:1052E000F8680C4B98470346002B0AD0F8680A4B25
:1052F00098477B685B68002B03D07B685B687868A5
:10530000984700BF1037BD4680BD00BF454D000027
:105310006B4D0000D74D0000854D000080B500AFFB
:10532000034B1B681846034B984700BF80BD00BF66
:105330008C0A0020B152000080B485B000AF7860C4
:105340000023FB7315E0FA7B0F4913465B001344FF
:105350001B010B441A687B689A4207D1FA7B1346FB
:105360005B0013441B01084A134406E0FB7B013336
:10537000FB73FB7B002BE6D0002318461437BD4699
:105380005DF8047B704700BF3000002080B485B01A
:1053900000AF78600023FB7315E0FA7B0F491346DA
:1053A0009B0013449B000B441A687B689A4207D108
:1053B000FA7B13469B0013449B00084A134406E003
:1053C000FB7B0133FB73FB7B002BE6D000231846ED
:1053D0001437BD465DF8047B704700BF60000020B5
:1053E00080B483B000AF78600B46FB70FB787A68BE
:1053F000DB0113441B6818460C37BD465DF8047B7F
:10540000704780B485B000AFF8600B467A60FB72DD
:10541000FB7AFA68DB01134418337A681A6000BF1C
:105420001437BD465DF8047B704780B483B000AF8D
:1054300078600B46FB70FB787A68DB01134410330D
:105440001B6818460C37BD465DF8047B704780B476
:1054500085B000AFF8600B467A60FB72FB7AFA68A1
:10546000DB01134414337A681A6000BF1437BD4659
:105470005DF8047B704780B483B000AF78600B4662
:10548000FB70FB787A68DB01134420331B681846F5
:105490000C37BD465DF8047B7047000080B582B0D4
:1054A00000AF03463960FB711346BB71BB79002B1B
:1054B00006D0FB793A6819460648074B984705E03D
:1054C000FB793A6819460348044B984700BF0837F0
:1054D000BD4680BD00800041035400004F540000D1
:1054E00080B586B000AF0346FB7107F10C03184688
:1054F000134B9847FB7919461248134B984778612C
:10550000FB7919460F48114B984702467B69DB43EC
:1055100013403B61FB7919460A480D4B98470246F8
:105520007B6913403A6913433B6107F10C0318464A
:10553000084B98473B6918461837BD4680BD00BFE9
:10554000ED0D000000800041E153000077540000A1
:105550002B540000130E000080B582B000AF03464C
:105560000A46FB711346BB71FB795B09D8B2FB7924
:1055700003F01F03012202FA03F3BA791946034B21
:10558000984700BF0837BD4680BD00BF9D5400004E
:1055900080B582B000AF0346FB71FB795B09DBB2DB
:1055A0001846094B98470146FB7903F01F03012277
:1055B00002FA03F30B40002B14BF01230023DBB2DC
:1055C00018460837BD4680BDE154000080B582B062
:1055D00000AF78607B68002B14BF01230023DBB28F
:1055E0007F2206491846064B98477B681846054BAC
:1055F0009847002318460837BD4680BD545F000019
:1056000069180000A534000080B582B000AF786052
:105610007B68002B14BF01230023DBB291220649D3
:105620001846064B98477B681846054B9847002359
:1056300018460837BD4680BD545F00006918000059
:10564000C534000080B584B000AFF860B9607A60FE
:10565000FB68002B14BF01230023DBB2B9220D49E4
:1056600018460D4B98477B68002B14BF012300237D
:10567000DBB2BA2207491846074B9847FB687A689D
:10568000B9681846054B9847002318461037BD46A1
:1056900080BD00BF545F000069180000E5340000C1
:1056A00080B400AF00BFBD465DF8047B70470000CA
:1056B00080B582B000AF00215620714B9847012180
:1056C00057206F4B98470A206E4B98476E496F489A
:1056D0006F4B98476D486F4B98474FF400622121FC
:1056E0006A486D4B98470A233B713B1D01221946BE
:1056F0006A486B4B9847FB1C012219466748694B67
:1057000098470A205F4B98470B233B713B1D0122B2
:1057100019466248624B9847BB1C012219465F48F4
:10572000604B98470A20574B9847FB78762B02D15D
:10573000BB78732B00D0FEE70C233B7104237B71F5
:105740003B1D022219465548554B984712233B7181
:1057500014237B713B1D022219465048504B984739
:1057600011233B7101237B713B1D022219464B48DB
:105770004B4B984715233B7103237B713B1D022242
:1057800019464648464B98478C233B7100237B7152
:105790003B1D022219464148414B984740233B712B
:1057A000D0237B713B1D022219463C483C4B984755
:1057B0001E233B7101237B713B1D02221946374892
:1057C000374B98473A233B710D237B713B1D0222D7
:1057D00019463248324B98473E233B7119237B715F
:1057E0003B1D022219462D482D4B984773233B71D0
:1057F000F9237B713B1D022219462848284B984704
:10580000A2233B7102237B713B1D022219462348D0
:10581000234B984717233B7116237B713B1D0222B4
:1058200019461E481E4B984770233B713A237B71E3
:105830003B1D022219461948194B984771233B71A9
:1058400035237B713B1D022219461448144B98479F
:1058500072233B7111237B713B1D022219460F48B5
:105860000F4B984732233B7124237B713B1D02224F
:1058700019460A480A4B984700BF0837BD4680BD05
:1058800059550000150F00005063022014630220D8
:105890001F130000C5120000E5120000286302205B
:1058A000411300009113000080B500AF354B9847BD
:1058B00000215720344B98473448354B98470222F3
:1058C00004213448344B98473248344B98474FF4BE
:1058D000163230213248334B9847334B984733497F
:1058E0000C20334B98470C20324B984700BF0C20BC
:1058F000314B9847034683F00103DBB2002BF6D10E
:1059000000BF0C202C4B98470346002BF9D12B48A5
:105910002B4B9847224A002128482A4B98472A4B6C
:1059200000221A6000BF284B1B68002BFBD02348C5
:10593000264B98470C20264B9847264B00221A608E
:1059400019E000BF2448254B9847034683F0010324
:10595000DBB2002BF6D11F4B1B68114AD35C1946F2
:105960001D481F4B98470A201E4B9847194B1B6830
:105970000133184A1360174B1B68B3F5163FE0D389
:10598000FEE700BFD102000059550000B0620220BE
:10599000E9150000946202209914000045140000EB
:1059A000900A0020555A0000B1560000A156000090
:1059B000A90F0000011100009155000000630220B2
:1059C000CD550000455600009062022009560000A7
:1059D0002111000048630220B8620220353F000018
:1059E0000D3F0000E10E000040B1002340FA03F13A
:1059F0005A1CC9071346F9D510467047024610468F
:105A0000704700BF70B50F4E0F4D761BB61018BF14
:105A1000002405D0013455F8043B9847A642F9D13B
:105A20000A4E0B4D761B00F0A9FAB61018BF0024E1
:105A300006D0013455F8043B9847A642F9D170BD11
:105A400070BD00BF885F0000885F0000905F0000AD
:105A5000885F000070B4860746D0541E002A41D0EB
:105A6000CAB2034602E014F1FF343BD303F8012B22
:105A70009D07F8D1032C2ED9CDB245EA05250F2C70
:105A800045EA054519D903F110022646103E0F2EAE
:105A900042F8105C42F80C5C42F8085C42F8045C86
:105AA00002F11002F2D8A4F1100222F00F0204F069
:105AB0000F041032032C13440DD91E462246043A1B
:105AC000032A46F8045BFAD8221F22F003020432AC
:105AD000134404F003042CB1C9B21C4403F8011BA5
